:020000040800F2
:100000000030002041290008990500089B050008E0
:100010009D0500089F050008A105000800000000DC
:10002000000000000000000000000000A305000820
:10003000A505000800000000A7050008A9050008A4
:1000400091290008912900089129000891290008A8
:100050009129000891290008912900089129000898
:100060009129000891290008912900089129000888
:10007000B10500089129000891290008912900087C
:100080009129000891290008912900089129000868
:100090009129000891290008912900089129000858
:1000A0009129000891290008912900089129000848
:1000B00091290008912900080000000091290008FA
:1000C00091290008000000000000000091290008AC
:1000D00000000000912900089129000891290008DA
:1000E000912900089129000800000000000000008C
:1000F0000000000000000000000000000000000000
:1001000000000000000000000000000000000000EF
:10011000000000000000000091290008912900085B
:1001200000000000000000000000000000000000CF
:1001300000000000000000000000000000000000BF
:10014000912900089129000800000000000000002B
:10015000000000000000000000000000000000009F
:10016000000000000000000000000000000000008F
:10017000000000000000000000000000000000007F
:080180000000000091290008B5
:1001880010B5054C237833B9044B13B10448AFF3C9
:1001980000800123237010BD0C0000200000000027
:1001A800EC29000808B5034B1BB103490348AFF31A
:1001B800008008BD0000000010000020EC290008A5
:1001C80072B6FEE700B597B0282200210CA802F00D
:1001D800DCFB00230793089309930A930B9301937D
:1001E8000293039304930593069302230C9301222D
:1001F80010921022119213934FF4501315930CA8D8
:1002080000F0ECFDD8B90F2307930223089380234D
:10021800099300230A930B93012107A801F026F9FB
:1002280078B981230193002303934FF480730593D6
:1002380001A801F021FA30B917B05DF804FBFFF707
:10024800BFFFFFF7BDFFFFF7BBFF08B500F08EFD4E
:10025800FFF7B8FF00F012F802F016FB01F0CCFC33
:1002680001F0E6FC00F02AF900F0E0F801F07CFF6C
:1002780002F024FB02F03CFBFEE7000030B589B039
:100288000024039404940594069407941A4B5A691D
:1002980042F480025A615A6902F480020092009A7C
:1002A8005A6942F400325A615A6902F400320192E2
:1002B800019A5A6942F480225A615B6903F48023E7
:1002C8000293029B0D4D22463021284601F078FB0F
:1002D800022303930494059403A9284601F092FA93
:1002E80030230393012304930594069403A9284615
:1002F80001F088FA09B030BD00100240000400483F
:100308000368B3F1804F00D0704782B003F504331F
:10031800DA6942F00102DA61DB6903F00103019353
:10032800019B02B0704700000268094B9A4200D056
:10033800704782B003F50333DA6942F00202DA61EA
:10034800DB6903F002030193019B02B0704700BF11
:100358000004004030B58BB0002305930693079343
:10036800089309930368B3F1804F04D02C4A934251
:100378002DD00BB030BD03F504335A6942F4003276
:100388005A615A6902F400320192019A5A6942F498
:1003980080225A615B6903F480230293029B4FF425
:1003A80000430593022506950124099405A94FF0F9
:1003B800904001F027FA0823059306950023079338
:1003C8000893099405A9174801F01CFAD1E7164BC0
:1003D8005A6942F400325A615A6902F400320392AF
:1003E800039A5A6942F480225A615B6903F48023B4
:1003F8000493049BC023059302240694099405A939
:100408004FF0904001F0FEF9012305930694002374
:1004180007930893099405A9024801F0F3F9A8E79E
:1004280000040040000400480010024000B58BB0F2
:10043800002307930893099300930193029303936E
:100448000493059306931C484FF080420260436072
:10045800836040F22B12C2600361836100F08CFA62
:10046800F0B900230793099307A9134800F01CFC6F
:10047800C8B960230093002201920292049269464F
:100488000D4800F0E7FA88B9042269460A4800F0E6
:10049800E1FA70B90848FFF75DFF0BB05DF804FB9F
:1004A800FFF78EFEDDE7FFF78BFEE2E7FFF788FE3A
:1004B800EAE7FFF785FEEDE77400002000B58FB08E
:1004C80000230A930B930C930D93079308930993B6
:1004D80000930193029303930493059306932A4888
:1004E8002A4A02604360836040F22B12C2600361B3
:1004F800836100F011FA002830D14FF480530A9339
:100508000AA9214800F050FB58BB1F4800F034FAF4
:1005180050BB00230793099307A91B4800F0C4FBAD
:1005280028BB60230093002201920292049269463C
:10053800154800F08FFAE8B904226946124800F01D
:1005480089FAD0B9082269460F4800F083FAB8B989
:100558000D48FFF7FFFE0FB05DF804FBFFF730FE14
:10056800CBE7FFF72DFED0E7FFF72AFED1E7FFF72D
:1005780027FED6E7FFF724FEDEE7FFF721FEE1E7D7
:10058800FFF71EFEE4E700BF28000020000400403B
:10059800FEE7FEE7FEE7FEE7FEE7704770477047B5
:1005A80008B500F0F5FB08BD08B5024801F048FAA7
:1005B80008BD00BFD401002082B00A4B9A6942F0FE
:1005C80001029A619A6902F001020092009ADA69BE
:1005D80042F08052DA61DB6903F080530193019B9A
:1005E80002B070470010024030B4026A036A23F078
:1005F800010303624468836923F4803323F073039F
:100608000D681D4322F002028B681343184A90427A
:100618000BD002F5A052904207D002F580629042BA
:1006280003D002F58062904205D123F00803CA681E
:100638001A4322F004030E4A90420BD002F5A0524E
:10064800904207D002F58062904203D002F58062A2
:10065800904205D124F440744A6922438C691443BA
:10066800446085614A684263036230BC704700BFDA
:10067800002C014030B4036A026A22F480720262DC
:100688004268C46924F4803C2CF0730C0C6844EA7A
:100698000C0523F400738C6843EA0423124CA0422F
:1006A8000BD0124CA0420FD004F58064A0420BD0AE
:1006B80004F58064A0420FD106E023F40063CC68FF
:1006C80043EA042323F4806322F440524C6942EA4B
:1006D80004128C6942EA04124260C5614A68C26326
:1006E800036230BC704700BF002C0140004001404D
:1006F80030B4026A036A23F4805303624468C3690E
:1007080023F0807323F4E6430D6843EA052322F4BB
:1007180000528D6842EA05320D4DA8420BD005F50E
:10072800A055A84207D005F58065A84203D005F575
:100738008065A84204D124F480444D6944EA8514B4
:100748004460C3614B680364026230BC704700BFF9
:10075800002C014030B4036A026A22F4803202623B
:100768004468426D22F4803222F070020D682A43F8
:1007780023F400338D6843EA05430D4DA8420BD09E
:1007880005F5A055A84207D005F58065A84203D015
:1007980005F58065A84204D124F480344D6944EA03
:1007A8000524446042654A688265036230BC70472C
:1007B800002C014030B4026A036A23F480130362F8
:1007C8004468436D23F0807323F4E0430D6843EAE3
:1007D800052322F400128D6842EA05520D4DA84205
:1007E8000BD005F5A055A84207D005F58065A842AD
:1007F80003D005F58065A84204D124F480244D690E
:1008080044EA8524446043654B68C365026230BC92
:10081800704700BF002C014010B4036A046A24F03A
:1008280001040462846924F0F00C4CEA021223F0FB
:100838000A030B43826103625DF8044B704710B4EE
:10084800036A046A24F010040462846924F4704C76
:100858004CEA023223F0A00343EA011382610362E7
:100868005DF8044B7047836823F070030B4343F033
:1008780007038360704700000368264A904206D049
:10088800B0F1804F03D0A2F59432904203D123F007
:1008980070034A6813431F4A904212D0B0F1804F48
:1008A8000FD0A2F5943290420BD002F59E329042BE
:1008B80007D002F58062904203D002F58062904230
:1008C80003D123F44073CA68134323F080034A69B1
:1008D800134303608B68C3620B6883620D4B9842B5
:1008E8000BD003F5A053984207D003F580639842D4
:1008F80003D003F58063984201D10B690363012398
:100908004361036913F0010F03D0036923F0010366
:1009180003617047002C014060B310B5044690F89D
:100928003D3013B3022384F83D30214651F8040BBF
:10093800FFF7A2FF012384F8483084F83E3084F89A
:100948003F3084F8403084F8413084F8423084F8ED
:10095800433084F8443084F8453084F8463084F8CD
:10096800473084F83D30002010BD80F83C30FFF758
:10097800DBFCD7E70120704760B310B5044690F858
:100988003D3013B3022384F83D30214651F8040B5F
:10099800FFF772FF012384F8483084F83E3084F86A
:1009A8003F3084F8403084F8413084F8423084F88D
:1009B800433084F8443084F8453084F8463084F86D
:1009C800473084F83D30002010BD80F83C30FFF7F8
:1009D80097FCD7E70120704730B4036A026A22F017
:1009E800100202624268846924F0807C2CF4E64C90
:1009F8000C684CEA042423F020038D6843EA0513AD
:100A0800124DA8420BD0124DA8420FD005F58065B3
:100A1800A8420BD005F58065A8420FD106E023F067
:100A28008003CD6843EA051323F0400322F44062B3
:100A38004D6942EA85028D6942EA85024260846115
:100A48004A688263036230BC704700BF002C0140D3
:100A58000040014038B590F83C30012B00F09580FB
:100A680004460D46012380F83C30142A00F28880A1
:100A7800DFE802F00B8686861F86868634868686A1
:100A8800488686865D86868671000068FFF7ACFD1D
:100A98002268936943F0080393612268936923F0FD
:100AA800040393612268936929690B4393610020C9
:100AB80067E00068FFF790FF2268936943F40063DA
:100AC80093612268936923F4806393612268936930
:100AD800296943EA01239361002052E00068FFF787
:100AE800C9FD2268D36943F00803D3612268D3693A
:100AF80023F00403D3612268D36929690B43D361C6
:100B080000203EE00068FFF7F3FD2268D36943F454
:100B18000063D3612268D36923F48063D3612268B8
:100B2800D369296943EA0123D361002029E00068D9
:100B3800FFF710FE2268536D43F0080353652268DF
:100B4800536D23F0040353652268536D29690B43E1
:100B58005365002015E00068FFF72CFE2268536DEE
:100B680043F4006353652268536D23F4806353652F
:100B78002268536D296943EA01235365002000E088
:100B88000120002384F83C3038BD0220FCE710B473
:100B9800846824F47F4C42EA03220A4342EA0C02A6
:100BA80082605DF8044B704790F83C30012B76D09A
:100BB80010B50446012380F83C30022380F83D300C
:100BC80002689068374B034093600B68602B4CD0E9
:100BD80029D8402B54D00CD9502B22D1CA68496847
:100BE8002068FFF719FE50212068FFF73CFE00201F
:100BF80005E0202B0DD009D9302B0AD00120012384
:100C080084F83D30002384F83C3010BD0BB1102B24
:100C180005D119462068FFF726FE0020EFE70120DE
:100C2800EDE70120EBE7B3F5805F34D0B3F5005F63
:100C38000CD1CB684A6889682068FFF7A8FF22684A
:100C4800936843F4804393600020D8E7702B24D145
:100C5800CB684A6889682068FFF799FF226893681B
:100C680043F0770393600020C9E7CA6849682068A1
:100C7800FFF7E5FD60212068FFF7F5FD0020BEE7DE
:100C8800CA6849682068FFF7C7FD40212068FFF758
:100C9800EAFD0020B3E70020B1E70120AFE702201A
:100CA800704700BF8800FEFF90F83C20012A33D02F
:100CB80030B40346012280F83C20022280F83D200F
:100CC800006842688468154DA84220D022F070025E
:100CD8000D682A4342601A68104882420AD0B2F16D
:100CE800804F07D0A0F59430824203D000F59E30A3
:100CF800824204D124F08004896821439160012252
:100D080083F83D20002083F83C0030BC704722F473
:100D180070024D682A43D9E702207047002C014031
:100D280010B504460E4B1A784FF47A73B3FBF2F3FE
:100D38000C4A1068B0FBF3F000F040FF68B90F2CC4
:100D480001D901200AE0002221464FF0FF3000F0CF
:100D580017FF054B1C60002000E0012010BD00BFFC
:100D680000000020080000200400002008B5074A01
:100D7800136843F010031360032000F0EFFE0F2008
:100D8800FFF7CEFFFFF718FC002008BD0020024047
:100D9800034A1168034B1B780B441360704700BF6C
:100DA800C000002000000020014B1868704700BFF9
:100DB800C000002038B50446FFF7F6FF0546B4F139
:100DC800FF3F02D0044B1B781C44FFF7EDFF401B8C
:100DD800A042FAD338BD00BF00000020002800F070
:100DE800FF8270B582B00446036813F0010F3BD050
:100DF800B44B5B6803F00C03042B1ED0B14B5B684B
:100E080003F00C03082B13D06368B3F5803F68D058
:100E1800002B40F0928003F1804303F504331A68F5
:100E280022F480321A601A6822F480221A605DE087
:100E3800A44B5B6813F4803FE6D04FF4003393FA79
:100E4800A3F3A04B19684FF4003393FAA3F3B3FA52
:100E580083F303F01F03012202FA03F30B4203D0CA
:100E68006368002B00F0BE82236813F0020F00F0C5
:100E7800C480944B5B6813F00C0F00F09C80914B7E
:100E88005B6803F00C03082B00F08F802369002BAC
:100E980000F0F080012292FAA2F3B3FA83F303F18F
:100EA800845303F584139B001A60FFF77DFF054602
:100EB800022393FAA3F3834B1968022393FAA3F34B
:100EC800B3FA83F303F01F03012202FA03F30B4280
:100ED80040F0C280FFF768FF401B0228E8D90320D2
:100EE80089E2784A136843F480331360754AD36AF9
:100EF80023F00F03A1680B43D3626368002B36D03D
:100F0800FFF752FF05464FF4003393FAA3F36D4BF6
:100F180019684FF4003393FAA3F3B3FA83F303F099
:100F28001F03012202FA03F30B429DD1FFF73CFF96
:100F3800401B6428E7D903205DE2B3F5A02F09D050
:100F4800604B1A6822F480321A601A6822F48022F0
:100F58001A60CBE703F18043A3F53C331A6842F4E7
:100F680080221A601A6842F480321A60BEE7FFF7DE
:100F78001BFF05464FF4003393FAA3F3514B19684E
:100F88004FF4003393FAA3F3B3FA83F303F01F0388
:100F9800012202FA03F30B423FF466AFFFF704FFA6
:100FA800401B6428E6D9032025E2464B5B6813F40E
:100FB800803F7FF46BAF022393FAA3F3414B196888
:100FC800022393FAA3F3B3FA83F303F01F03012276
:100FD80002FA03F30B4203D02369934240F00482E0
:100FE8003848036823F0F8036169F82292FAA2F2FC
:100FF800B2FA82F291400B430360236813F0080FA2
:1010080000F08C80A369002B60D0012191FAA1F235
:10101800B2FA82F22C4B13449B001960FFF7C4FE0E
:101028000546022393FAA3F293FAA3F293FAA3F2E2
:10103800244A516A93FAA3F3B3FA83F303F01F0324
:10104800012202FA03F30B4268D1FFF7ADFE401B01
:101058000228E6D90320CEE11A48036823F0F803F2
:101068006169F82292FAA2F2B2FA82F291400B4335
:101078000360C2E7012393FAA3F3B3FA83F303F1FE
:10108800845303F584139B0000221A60FFF78CFE3B
:101098000546022393FAA3F30A4B1968022393FA2D
:1010A800A3F3B3FA83F303F01F03012202FA03F355
:1010B8000B42A2D0FFF778FE401B0228E9D9032093
:1010C80099E100BF0010024020819010012292FA9D
:1010D800A2F2B2FA82F2B74B13449B0000221A60C4
:1010E800FFF762FE0546022393FAA3F293FAA3F2EE
:1010F80093FAA3F2B04A516A93FAA3F3B3FA83F3CB
:1011080003F01F03012202FA03F30B4206D0FFF794
:101118004BFE401B0228E6D903206CE1236813F03C
:10112800040F00F0A980A44BDB6913F0805F20D185
:10113800A14BDA6942F08052DA61DB6903F080532F
:101148000193019B01259D4B1B6813F4807F12D0EE
:10115800E368012B23D073BB03F1804303F5043309
:101168001A6A22F001021A621A6A22F004021A624A
:101178001AE00025E7E7914A136843F48073136087
:10118800FFF712FE06468D4B1B6813F4807FDFD1F4
:10119800FFF70AFE801B6428F5D903202BE1864A55
:1011A800136A43F001031362E368002B3CD0FFF796
:1011B800FBFD06462EE0052B09D07F4B1A6A22F06C
:1011C80001021A621A6A22F004021A62ECE77A4BE8
:1011D8001A6A42F004021A621A6A42F001021A629A
:1011E800E2E7022393FAA3F3734B596A022393FAB3
:1011F800A3F3B3FA83F303F01F03012202FA03F304
:10120800194238D1FFF7D0FD801B41F2883398424C
:1012180000F2EC80022393FAA3F293FAA3F3002BD3
:10122800DFD0654B196AE1E7FFF7BEFD064618E017
:10123800022393FAA3F3604B596A022393FAA3F3A8
:10124800B3FA83F303F01F03012202FA03F31942EE
:1012580011D0FFF7A9FD801B41F28833984200F2B4
:10126800C780022393FAA3F293FAA3F3002BDFD0EB
:10127800514B196AE1E7B5BBE369002B00F0BA806E
:101288004D4A526802F00C02082A00F09980022B9D
:101298002FD04FF0807393FAA3F3B3FA83F303F1DB
:1012A800845303F584139B0000221A60FFF77CFD2A
:1012B80004464FF0007393FAA3F33F4B19684FF0BD
:1012C800007393FAA3F3B3FA83F303F01F03012225
:1012D80002FA03F319426BD0FFF766FD001B0228E0
:1012E800E7D9032087E0344AD36923F08053D361D8
:1012F800C2E74FF0807393FAA3F3B3FA83F303F1D1
:10130800845303F584139B0000221A60FFF74CFDF9
:1013180005464FF0007393FAA3F3274B19684FF073
:10132800007393FAA3F3B3FA83F303F01F030122C4
:1013380002FA03F3194206D0FFF736FD401B0228D4
:10134800E7D9032057E01C494B6823F47413626AF9
:10135800206A024313434B604FF0807393FAA3F360
:10136800B3FA83F303F1845303F584139B0001223A
:101378001A60FFF719FD04464FF0007393FAA3F3C0
:101388000D4B19684FF0007393FAA3F3B3FA83F384
:1013980003F01F03012202FA03F3194206D1FFF7F3
:1013A80003FD001B0228E7D9032024E0002022E0E7
:1013B800002020E0208190100010024000700040C2
:1013C800012B1AD0104B5B6803F48031226A9142DA
:1013D80015D103F47013626A934212D100200AE017
:1013E80001207047012006E0012004E0032002E00C
:1013F800032000E0002002B070BD0120FBE70120BF
:10140800F9E70120F7E700BF00100240114B5A68C6
:1014180002F00C03042B18D0082B18D1C2F3834315
:101428000D49C85C0B4BDB6A03F00F030B49C95C21
:1014380012F4803F05D00A4BB3FBF1F303FB00F035
:101448007047084B03FB00F0704705487047064893
:10145800704700BF00100240142A0008042A000840
:101468000024F40000093D0000127A00002800F072
:10147800BE8070B50D460446614B1B6803F0070338
:101488008B420BD25E4A136823F007030B431360A9
:10149800136803F007038B4240F0AB80236813F016
:1014A800020F06D0574A536823F0F003A1680B4394
:1014B8005360236813F0010F5AD06368012B2DD0B5
:1014C800022B40D0022292FAA2F24E4A106802225F
:1014D80092FAA2F2B2FA82F202F01F02012101FA94
:1014E80002F2104200F0878046494A6822F003025F
:1014F80013434B60FFF758FC0646424B5B6803F00A
:101508000C036268B3EB820F32D0FFF74DFC801BEF
:1015180041F288339842F0D9032067E04FF4003253
:1015280092FAA2F2374A10684FF4003292FAA2F205
:10153800B2FA82F202F01F02012101FA02F202421B
:10154800D2D1012052E04FF0007292FAA2F22D4A55
:1015580010684FF0007292FAA2F2B2FA82F202F028
:101568001F02012101FA02F21042BDD101203DE023
:10157800234B1B6803F00703AB420AD9204A1368C0
:1015880023F007032B431360136803F00703AB42F0
:1015980033D1236813F0040F06D01A4A536823F492
:1015A800E063E1680B435360236813F0080F07D02A
:1015B800144A536823F46053216943EAC103536012
:1015C800FFF724FF0F4B5B6803F0F003F02292FA59
:1015D800A2F2B2FA82F2D3400B4AD35CD8400B4B4A
:1015E80018600B4B1868FFF79BFB002070BD0120AB
:1015F80070470120FAE70120F8E70120F6E700BF6D
:1016080000200240001002402C2A00080800002098
:1016180004000020014B1868704700BF0800002034
:1016280008B5FFF7F7FF074B5B6803F4E0634FF477
:10163800E06292FAA2F2B2FA82F2D340024AD35C92
:10164800D84008BD00100240242A000808B5FFF75A
:10165800E1FF074B5B6803F460534FF4605292FA62
:10166800A2F2B2FA82F2D340024AD35CD84008BD53
:1016780000100240242A0008F0B583B0044603682D
:1016880013F4803F44D05C4BDB6913F0805F6DD16D
:10169800594BDA6942F08052DA61DB6903F0805312
:1016A8000193019B0125554B1B6813F4807F5FD084
:1016B800514B1B6A13F4407321D0626802F44072E4
:1016C8009A421CD04C48016A21F440764FF480338A
:1016D80093FAA3F2B2FA82F2494F3A4492004FF0D9
:1016E800010CC2F800C093FAA3F3B3FA83F33B44A6
:1016F8009B0000221A60066211F0010F4CD13E4A8D
:10170800136A23F4407361680B431362002D69D197
:10171800236813F0010F06D0374A136B23F0030335
:10172800A1680B431363236813F0200F06D0324AD5
:10173800136B23F01003E1680B431363236813F062
:10174800800F06D02C4AD36A23F4F87321690B431F
:10175800D362236813F4805F4BD0274A136B23F4BA
:10176800807361690B431363002043E000259AE707
:10177800224A136843F480731360FFF715FB06468B
:101788001E4B1B6813F4807F92D1FFF70DFB801B63
:101798006428F5D903202DE0FFF706FB064617E07D
:1017A800022393FAA3F3144B596A022393FAA3F37F
:1017B800B3FA83F303F01F03012202FA03F30B4287
:1017C8009DD1FFF7F1FA801B41F2883398420ED879
:1017D800022393FAA3F293FAA3F3002BE0D0064B6B
:1017E800196AE2E7D36923F08053D36190E70320B5
:1017F80000E0002003B0F0BD00100240007000407F
:1018080000819010F0B583B0002362E085685E0027
:101818000324B44025EA0405CC68B4402C43846012
:10182800456825EA0C054C68C4F300149C402C4319
:1018380044605FE0DD08083550F8254003F0070CE8
:101848004FEA8C0C4FF00F0E0EFA0CFE24EA0E0E27
:101858000C6904FA0CF444EA0E0440F8254060E0F0
:10186800032400E0002404FA0EF42C430CF1020CCB
:101878004F4D45F82C404F4CA568D44325EA020645
:101888004F6817F4801F01D042EA0506494DAE6043
:10189800ED6804EA05064F6817F4001F01D042EA14
:1018A8000506444DEE606D6804EA05064F6817F4B6
:1018B800003F01D042EA05063E4D6E602D682C407F
:1018C8004E6816F4803F01D042EA0504394A146094
:1018D80001330A6832FA03F468D04FF0010C0CFAAD
:1018E80003FC1CEA0202F3D04C6804F00304013C38
:1018F800012C8BD94C6804F00304032C0CD0C46869
:101908005D004FF0030C0CFA05FC24EA0C0C8C6803
:10191800AC4044EA0C04C4604C6804F00304022C94
:1019280088D004684FEA430E4FF0030C0CFA0EFC03
:1019380024EA0C0C4C6804F0030404FA0EF444EA9C
:101948000C0404604C6814F4403FC1D01A4CA569DB
:1019580045F00105A561A46904F001040194019C06
:101968004FEA930C0CF10205114C54F8255003F082
:10197800030E4FEA8E0E0F2404FA0EF425EA04052E
:10198800B0F1904F3FF46EAF0C4CA0420AD004F572
:101998008064A04208D004F58064A0423FF460AFA0
:1019A800052460E701245EE702245CE703B0F0BD8C
:1019B80000000140000401400010024000040048FB
:1019C8000AB1816170478162704700000268054B67
:1019D8001344054AA2FB03231B099B000364034B22
:1019E800C3637047F8FFFDBFCDCCCCCC00000240EC
:1019F80020B310B50446022380F8213001680A6834
:101A080022F47F5222F03002436880680343E06882
:101A180003432069034360690343A0690343E06902
:101A2800034313430B602046FFF7D0FF0020A06359
:101A3800012384F8213084F8200010BD012070476C
:101A480038B5C36B1A6804682568016C04238B4099
:101A5800134213D015F0040F10D0236813F0200F91
:101A680003D1236823F004032360016CC26B0423B1
:101A78008B405360C36A03B1984738BD02238B403B
:101A880013421AD015F0020F17D0236813F0200F55
:101A980006D1236823F00A032360012380F821304C
:101AA800016CC26B02238B405360002380F8203006
:101AB800836A002BE1D09847DFE708238B40134265
:101AC800DBD015F0080FD8D0236823F00E0323606D
:101AD800026CC16B012303FA02F24A60836380F847
:101AE8002130002380F82030036B002BC5D09847A5
:101AF800C3E70000002808DB0901C9B200F1604013
:101B080000F5614080F80013704700F00F000901EC
:101B1800C9B2014B1954704714ED00E000B500F04C
:101B28000700C0F1070CBCF1040F28BF4FF0040CEC
:101B3800031D062B0FD9C31E4FF0FF3E0EFA0CF003
:101B480021EA000199400EFA03FE22EA0E0241EA58
:101B580002005DF804FB0023EEE70000074AD368A3
:101B680023F4E0631B041B0C000200F4E060034351
:101B780043F0BF6343F40033D360704700ED00E0E7
:101B880010B50446054BD868C0F30220FFF7C6FF1E
:101B980001462046FFF7AEFF10BD00BF00ED00E094
:101BA800002807DB00F01F02400901239340024A86
:101BB80042F82030704700BF00E100E00138B0F182
:101BC800807F0BD24FF0E0235861054AF02182F85C
:101BD80023100020986107221A617047012070477E
:101BE80000ED00E0034AD2F8883043F47003C2F8ED
:101BF8008830704700ED00E008B50B480B4B0360D8
:101C08004FF4E133436000238360C36003610C2217
:101C180042618361C3610362436200F074FA00B9F0
:101C280008BDFEF7CDFAFBE74C0100200038014063
:101C380008B50B480B4B03604FF4E13343600023B6
:101C48008360C36003610C2242618361C3610362E4
:101C5800436200F058FA00B908BDFEF7B1FAFBE795
:101C6800C40000200044004000B58BB00023059359
:101C780006930793089309930368254A934205D06E
:101C8800244A934222D00BB05DF804FB224B9A6998
:101C980042F480429A619A6902F480420192019A60
:101CA8005A6942F480225A615B6903F480230293E3
:101CB800029BC0230593022306930323089307235B
:101CC800099305A91548FFF79DFDDCE7124BDA6972
:101CD80042F40032DA61DA6902F400320392039ABC
:101CE8005A6942F400325A615B6903F40033049381
:101CF800049B0C23059302230693032308930723CD
:101D0800099305A94FF09040FFF77CFDBBE700BFA2
:101D18000038014000440040001002400004004820
:101D2800026852E8003F23F4907342E8003100292A
:101D3800F6D1026802F1080353E8003F23F00103DB
:101D4800083242E800310029F3D1036E012B06D096
:101D58002023C0F88030002303668366704702683A
:101D680052E8003F23F0100342E800310029F6D181
:101D7800EEE7000010B50446836802691343426920
:101D88001343C2691343016808684E4A02401A4364
:101D98000A602268536823F44053E1680B43536098
:101DA800A269236A1A4321688B6823F430631343BA
:101DB8008B602368444A934214D0444A934227D004
:101DC80002F5806293421FD01023E069B0F5004FFE
:101DD80020D0082B70D8DFE803F04A60486F636FA3
:101DE8006F6F66003A4B1B6B03F00303032B09D894
:101DF800DFE803F00204060C0023E6E70423E4E727
:101E08000823E2E71023E0E70023DEE70223DCE70C
:101E18000023DAE7082B49D8DFE803F0051F254837
:101E2800224848480900FFF7FBFB002840D06268B9
:101E3800530803EB4003B3FBF2F3A3F110014FF691
:101E4800EF72914236D89AB222F00F02C3F34203DE
:101E580013432268D36000201BE0FFF7F7FBE4E799
:101E6800FFF7D4FAE1E71B48E1E71A4802E0FFF779
:101E7800D7FB18B3636800EB5300B0FBF3F0A0F195
:101E880010024FF6EF739A421AD8236880B2D860CE
:101E980000200023A366E36610BDFFF7D7FBE8E741
:101EA800FFF7B4FAE5E74FF40040E3E70120F0E775
:101EB8000020EEE70120ECE70120EAE70020E8E750
:101EC8000120E6E7F369FFEF0038014000440040D5
:101ED8000010024000127A00436A13F0080F06D07F
:101EE8000268536823F40043416B0B435360436A11
:101EF80013F0010F06D00268536823F40033816A97
:101F08000B435360436A13F0020F06D0026853680C
:101F180023F48033C16A0B435360436A13F0040F00
:101F280006D00268536823F48023016B0B43536087
:101F3800436A13F0100F06D00268936823F48053A5
:101F4800816B0B439360436A13F0200F06D002683D
:101F5800936823F40053C16B0B439360436A13F0F7
:101F6800400F0AD00268536823F48013016C0B43B6
:101F78005360036CB3F5801F0BD0436A13F0800FD6
:101F880006D00268536823F40023816C0B43536026
:101F980070470268536823F4C003416C0B435360D5
:101FA800EBE72DE9F84305460E4617469946DDF856
:101FB80020802B68DC6936EA04040CBF0124002465
:101FC800BC4236D1B8F1FF3FF3D0FEF7EDFEA0EBEF
:101FD8000900404530D8B8F1000F2FD02B681A6897
:101FE80012F0040FE5D0802EE3D0402EE1D0DA695C
:101FF80012F0080F11D1DA6912F4006FD9D04FF43A
:1020080000621A622846FFF78BFE2023C5F8843049
:10201800002385F8783003200CE008241C62284649
:10202800FFF77EFEC5F88440002385F8783001204C
:1020380000E00020BDE8F8830320FBE70320F9E770
:1020480030B583B004460023C0F88430FEF7ACFEF8
:1020580005462268126812F0080F0FD123681B6822
:1020680013F0040F26D12023E367C4F88030002042
:102078002066606684F8780003B030BD6FF07E4358
:102088000093034600224FF400112046FFF789FF12
:102098000028E3D0226852E8003F23F0800342E89A
:1020A80000310029F6D12023E367002384F8783033
:1020B8000320E1E76FF07E4300932B4600224FF4A4
:1020C80080012046FFF76DFF0028CCD0226852E837
:1020D800003F23F4907342E800310029F6D12268CA
:1020E80002F1080353E8003F23F00103083242E8F5
:1020F80000310029F3D12023C4F88030002384F86C
:1021080078300320B8E768B310B50446C36F03B34B
:102118002423E3672268136823F001031360636ACA
:10212800E3B92046FFF726FE012811D0226853683C
:1021380023F4904353602268936823F02A03936042
:102148002268136843F0010313602046FFF778FF05
:1021580010BD80F87830FFF787FDD9E72046FFF7F4
:10216800BBFEDEE70120704700B587B0002300936F
:10217800019302930393049305931748174A026047
:102188004360836003610122427680F82030C36295
:102198008262C360C26180F8302004224261037603
:1021A800436300F0AFF880B9022300930123019341
:1021B800002303930293049305936946064800F0AD
:1021C800ABF928B907B05DF804FBFDF7F9FFEBE7B9
:1021D800FDF7F6FFF6E700BF1802002000010050E7
:1021E80030B589B0002303930493059306930793AE
:1021F80002681E4B9A4201D009B030BD04461C4B00
:102208005A6942F080525A615A6902F0805201922A
:10221800019A5A6942F400325A615B6903F4003347
:102228000293029B202503950323049303A94FF0EF
:102238009040FFF7E7FA0F480F4B03600023436015
:1022480083608022C2604FF4807202614FF4806222
:1022580042618561C361FFF7CBFB18B9054BA363E6
:102268005C62C9E7FDF7ACFFF8E700BF000100506A
:1022780000100240D40100201C00024038B502685A
:10228800936803F00303012B01D0002038BD0446F6
:10229800136813F0010F33D0936803F00D03012B7B
:1022A80009D0036C43F010030364436C43F001034B
:1022B80043640120EAE7936843F0020393600368EC
:1022C80003221A60FEF770FD054623689B6813F029
:1022D800010F13D0FEF768FD401B0228F5D92368CB
:1022E8009B6813F0010FF0D0236C43F010032364B4
:1022F800636C43F0010363640120C7E70020C5E76E
:102308000020C3E730B597B000230193002800F000
:10231800F7800446036C13F0100F52D1036CABB175
:10232800002023689A6812F0805F03D09B6813F03E
:10233800005F47D0236C23F0120343F0100323649B
:10234800636C43F00103636401203BE04364C364AE
:10235800836480F83C30FFF743FF23689B6813F0E1
:10236800805F01D00020DCE72046FFF787FF236C61
:1023780013F0100FD5D10028D3D1236C23F4885340
:1023880023F0020343F0020323642268936823F0D6
:10239800405393602268936843F080539360594B8D
:1023A8001B68594AA2FB03239B0C03EB83035B00C6
:1023B800019302E0019B013B0193019B002BF9D1A2
:1023C800AFE70020236C13F0100F40F09080002836
:1023D80040F08D802368996811F0040140F08780EF
:1023E800226C22F4817242F002022264B3F1A04FFF
:1023F80054D04FF0A04202929A6802F00302012AD8
:102408004FD0029B23B19A6802F00302012A4DD0F3
:102418003E4A936823F4403365682B439360627E99
:102428005303656B012D01D04FF480510B43E168D4
:102438000B43A1680B4394F8201001293BD0A26AF2
:10244800012A02D0E16A0A4313432268916811F015
:102458000C0F0CD1D16821F4804121F00201D16028
:10246800217E94F83020520042EA813213432168D9
:10247800CD68274A2A401A43CA602369012B2DD008
:102488002268136B23F00F03136300236364236C28
:1024980023F0030343F0010323642FE01D4A029253
:1024A800AAE71B6813F0010FB9D1AAE71B6813F05C
:1024B800010FB4D1ACE732B9626A013A43EA424249
:1024C80042F48033BBE7226C22F0220242F0200261
:1024D8002264626C42F001026264B0E721680B6B0F
:1024E80023F00F03E269013A13430B63CDE7236C32
:1024F80023F0120343F010032364012017B030BD0A
:102508000120FBE70800002083DE1B430003005086
:1025180007C0F0FF0001005030B496B000220192CD
:1025280090F83C20012A00F0A5810346012280F89A
:102538003C200068826812F0040F40F090814A68DD
:10254800042A35D8046B02EB420252004FF01F0CEC
:102558000CFA02FC24EA0C0C0C6894404CEA0404C3
:1025680004631868826812F00C0F6BD10A68092A94
:102578004FD9846902EB42021E3A4FF0070C0CFA5D
:1025880002FC24EA0C048D6805FA02F222438261F7
:1025980048691C68E268C2F3C102520090400A69A7
:1025A800013A032A00F28D80DFE802F0426A758062
:1025B800092A10D8446B02EB420252001E3A4FF02F
:1025C8001F0C0CFA02FC24EA0C040D6805FA02F24E
:1025D80022434263C5E70E2A0DD8846B02EB420200
:1025E80052003C3A1F25954024EA05040D689540A1
:1025F8002C438463B5E7C46B02EB420252005A3A9B
:102608001F25954024EA05040D6895402C43C463B2
:10261800A7E7446902EB42024FF0070C0CFA02FCF0
:1026280024EA0C048D6805FA02F222434261AFE7FE
:10263800256E914A2A400D6840EA85652A4342F092
:10264800004222661868826802F00302012A68D0F4
:10265800CA68012A6BD0D0F8B02001240D68AC40BC
:1026680022EA0402C0F8B0200A68102A00F0868026
:10267800112A00F0A480122A00F0A7800020F3E0BD
:10268800656E7D4A2A400D6840EA85652A4342F016
:1026980000426266D6E7A56E774A2A400D6840EA8E
:1026A80085652A4342F00042A266CBE7E26E724D8E
:1026B80015400A6840EA8262154345F00045E56620
:1026C800C0E7226E02F0F8420868B2EB806F03D1CF
:1026D800226E22F0004222661A68506E00F0F8401E
:1026E8000C68B0EB846F03D1506E20F00040506648
:1026F8001A68906E00F0F8400C68B0EB846F03D154
:10270800906E20F0004090661A68D06E00F0F84095
:102718000C68B0EB846F95D1D06E20F00040D06685
:1027280090E7026812F0010F92D000209CE0D0F8E8
:10273800B0200D680124AC402243C0F8B0200A68DC
:10274800092A0DD91D68A86902EB42021B3A072421
:10275800944020EA04008C6894402043A86183E7F1
:102768001D686869013202EB42020724944020EA9E
:1027780004008C6894402043686175E73F49896884
:1027880011F4000F7FF474AF1868B0F1A04F23D094
:102798004FF0A0410291816801F0030101291ED088
:1027A800029921B18C6804F00304012C21D0102A6D
:1027B80024D0112A42D0122A4AD0002054E02F49AE
:1027C800896811F0807FDFD055E72C49896811F4BA
:1027D800800FD9D0002047E029490291DBE7016842
:1027E80011F0010FDCD01A6C42F020021A640120AB
:1027F8003AE0096811F0010FF5D1D8E7B0F1A04F20
:10280800D7D11E498A6842F400028A601D4A1268BC
:10281800A1F14E61A1F58421A1F27D41A1FB021233
:10282800920C02EB82025200019202E0019A013AF4
:102838000192019A002AF9D1002015E0B0F1A04FC9
:10284800B9D10E498A6842F080728A6000200BE094
:102858000A498A6842F480028A60002004E01A6CFF
:1028680042F020021A640120002283F83C2016B0AE
:1028780030BC70470220FAE700F0FF8300030050E5
:10288800000100500800002000B583B00A4B5A69C7
:1028980042F001025A615B6903F001030193019B55
:1028A800002211460C20FFF76BF90C20FFF778F98E
:1028B80003B05DF804FB00BF0010024010B5094BDF
:1028C800094C1C601021998000222046FFF778F8F7
:1028D800064B1C602021998000222046FFF770F8E3
:1028E80010BD00BF700200200004004868020020EC
:1028F80008B50F4D0122A9882868FFF761F80D4C2B
:102908000122A1882068FFF75BF84FF4FA70FEF700
:1029180051FA0022A9882868FFF752F80022A188F6
:102928002068FFF74DF84FF4FA70FEF743FAE0E736
:102938007002002068020020DFF834D0FFF752F957
:102948000C480D490D4A002302E0D458C450043302
:10295800C4188C42F9D30A4A0A4C002301E01360D8
:102968000432A242FBD300F019F8FDF76EFCFEE733
:1029780000300020000000200C000020442A00083D
:102988000C00002078020020FEE702440346934230
:1029980000D1704703F8011BF9E7000070B50D4D31
:1029A8000D4C641BA4100026A64209D10B4D0C4CFB
:1029B80000F018F8641BA4100026A64205D170BDCB
:1029C80055F8043B98470136EEE755F8043B98471D
:1029D8000136F2E73C2A00083C2A00083C2A000895
:1029E800402A0008F8B500BFF8BC08BC9E467047EE
:0C29F800F8B500BFF8BC08BC9E46704754
:102A04000102030405060708090A0B0C0D0E0F103A
:102A140002030405060708090A0B0C0D0E0F10101B
:102A24000000000001020304000000000000000098
:082A3400010203040607080972
:042A3C00AD010008E0
:042A40008901000800
:0C2A4400010000001000000000127A00E9
:040000050800294185
:00000001FF
