:020000040800F2
:100000000030002001360008950700089707000817
:10001000990700089B0700089D07000800000000E2
:100020000000000000000000000000009F07000822
:10003000A107000800000000A3070008A5070008AA
:100040005136000851360008513600085136000874
:100050005136000851360008513600085136000864
:100060005136000851360008513600085136000854
:100070005136000851360008AD0700085136000817
:100080005136000851360008513600085136000834
:100090005136000851360008513600085136000824
:1000A0005136000851360008513600085136000814
:1000B0005136000851360008000000005136000893
:1000C0005136000800000000000000005136000812
:1000D0000000000051360008513600085136000873
:1000E00051360008513600080000000000000000F2
:1000F0000000000000000000000000000000000000
:1001000000000000000000000000000000000000EF
:1001100000000000000000005136000851360008C1
:1001200000000000000000000000000000000000CF
:1001300000000000000000000000000000000000BF
:100140005136000851360008000000000000000091
:10015000000000000000000000000000000000009F
:10016000000000000000000000000000000000008F
:10017000000000000000000000000000000000007F
:080180000000000051360008E8
:1001900010B5054C237833B9044B13B10448AFF3C1
:1001A00000800123237010BD6800002000000000C3
:1001B0006851000808B5034B1BB103490348AFF36E
:1001C000008008BD000000006C000020685100089D
:1001D00001F0FF01102A2BDB10F0070F08D010F8F8
:1001E000013B013A8B422DD010F0070F42B3F6D1FC
:1001F000F0B441EA012141EA014122F007047FF015
:1002000000070023F0E80256083C85EA010586EA6B
:10021000010685FA47F5A3FA87F586FA47F6A5FAA7
:1002200087F68EB9EED1F0BC01F0FF0102F00702B3
:1002300032B110F8013B013A83EA010313B1F8D15E
:100240000020704701387047002D06BF354603383F
:10025000073815F0010F07D1013015F4807F02BF78
:10026000013015F4C03F0130F0BC0138704700BFC9
:1002700010B514460A2392B2024802F095FE2046B9
:1002800010BD00BF8C02002072B6FEE700B597B02B
:10029000282200210CA803F02DFC002307930893CB
:1002A00009930A930B930193029303930493059389
:1002B000069302230C9301221092102211921393A1
:1002C0004FF4501315930CA800F0F0FFE8B90F237A
:1002D0000793022308938023099300230A930B9327
:1002E000012107A801F024FB88B941F281030193A1
:1002F000002303934FF480720592069301A801F046
:100300001DFC30B917B05DF804FBFFF7BDFFFFF728
:10031000BBFFFFF7B9FF000008B50F4B1B680021BA
:10032000986803F096F900F09DFFFFF7AFFF00F02B
:1003300015F803F04BF900F007F901F0F5FF02F0B2
:100340000FF801F045FF00F091F900F0D9F902F043
:1003500035FF02F087FFFEE71800002000B589B0E6
:1003600000230393049305930693079303F18043BB
:1003700003F504335A6942F480025A615A6902F45F
:1003800080020092009A5A6942F400325A615A6916
:1003900002F400320192019A5A6942F480225A61B1
:1003A0005B6903F480230293029B0123039303A957
:1003B0004FF0904001F088FC09B05DF804FB0000AC
:1003C0000268094B9A4200D0704782B003F564433B
:1003D0009A6942F400629A619B6903F40063019395
:1003E000019B02B0704700BF002C014082B003683F
:1003F000B3F1804F04D00E4A93420DD002B0704743
:1004000003F50433DA6942F00102DA61DB6903F0D3
:1004100001030093009BF1E7064BDA6942F0020208
:10042000DA61DB6903F002030193019BE6E700BF99
:10043000000400400010024030B58BB0002305934B
:10044000069307930893099303683B4A934207D0A6
:10045000B3F1804F2FD0394A934258D00BB030BD02
:10046000374B5A6942F400325A615A6902F4003239
:100470000092009A5A6942F480225A615B6903F43F
:1004800080230193019B4FF4F063059302250695A9
:100490000624099405A94FF0904001F015FC0323B0
:1004A00005930695002307930893099405A9254809
:1004B00001F00AFCD2E703F504335A6942F4003232
:1004C0005A615A6902F400320292029A5A6942F45D
:1004D00080225A615B6903F480230393039B4FF4EA
:1004E00000430593022506950124099405A94FF0C0
:1004F000904001F0E9FB082305930695002307933C
:100500000893099405A90F4801F0DEFBA6E70C4B00
:100510005A6942F480225A615B6903F48023049390
:10052000049B3023059302230693099305A90548EC
:1005300001F0CAFB92E700BF002C0140000400401C
:10054000001002400004004810B59AB00024169430
:100550001794189419941394149415940C940D945E
:100560000E940F941094119412942C22214601A8F9
:1005700003F0C0FA3B483C4B0360012343608460B6
:1005800040F22B13C36004614461846100F0C6FA39
:1005900000284ED14FF48053169316A9314800F02D
:1005A00005FC002848D12F4800F0E8FA002846D181
:1005B000002313931493159313A92A4800F0ACFD5C
:1005C00000283FD160230C9300220D920E920F92CF
:1005D0001092119212920CA9224800F03DFB0028C3
:1005E00033D104220CA91F4800F036FB00282FD17C
:1005F00008220CA91B4800F02FFB60BB00230193CD
:10060000029303930A22049205934FF40052069238
:10061000079308934FF0007209920A930B9301A974
:10062000104800F0B5FDC8B90E48FFF705FF1AB035
:1006300010BDFFF729FEADE7FFF726FEB3E7FFF792
:1006400023FEB5E7FFF720FEBCE7FFF71DFEC8E776
:10065000FFF71AFECCE7FFF717FECFE7FFF714FE10
:10066000E2E700BF1C010020002C014000B58BB068
:100670000023079308930993009301930293039334
:100680000493059306931D484FF0804202600922AF
:100690004260836040F6B732C2600361836100F05C
:1006A0006DFAF0B900230793099307A9134800F0E6
:1006B00033FDC8B960230093002201920292049294
:1006C00069460E4800F0C8FA88B9042269460B480A
:1006D00000F0C2FA70B90948FFF7AEFE0BB05DF842
:1006E00004FBFFF7D1FDDDE7FFF7CEFDE2E7FFF703
:1006F000CBFDEAE7FFF7C8FDEDE700BFD000002023
:1007000000B58BB0002307930893099300930193DE
:10071000029303930493059306931C481C4A0260BA
:1007200009224260836040F6B732C2600361836190
:1007300000F024FAF0B900230793099307A913489E
:1007400000F0EAFCC8B960230093002201920292F3
:10075000049269460D4800F07FFA88B90422694680
:100760000A4800F079FA70B90848FFF765FE0BB047
:100770005DF804FBFFF788FDDDE7FFF785FDE2E7A5
:10078000FFF782FDEAE7FFF77FFDEDE78400002039
:1007900000040040FEE7FEE7FEE7FEE7FEE77047E5
:1007A0007047704708B500F06FFD08BD08B50248F6
:1007B00001F0F2FB08BD00BF7001002082B00A4BBF
:1007C0009A6942F001029A619A6902F0010200926C
:1007D000009ADA6942F08052DA61DB6903F08053F3
:1007E0000193019B02B070470010024030B4026ACE
:1007F000036A23F0010303624468836923F48033AE
:1008000023F073030D681D4322F002028B6813432B
:10081000184A90420BD002F5A052904207D002F540
:100820008062904203D002F58062904205D123F0AD
:100830000803CA681A4322F004030E4A90420BD000
:1008400002F5A052904207D002F58062904203D098
:1008500002F58062904205D124F440744A69224333
:100860008C691443446085614A684263036230BC0A
:10087000704700BF002C014030B4036A026A22F4C2
:10088000807202624268C46924F4803C2CF0730CCC
:100890000C6844EA0C0523F400738C6843EA0423D3
:1008A000124CA0420BD0124CA0420FD004F5806431
:1008B000A0420BD004F58064A0420FD106E023F4DF
:1008C0000063CC6843EA042323F4806322F440529B
:1008D0004C6942EA04128C6942EA04124260C56122
:1008E0004A68C263036230BC704700BF002C0140FD
:1008F0000040014030B4026A036A23F4805303626B
:100900004468C36923F0807323F4E6430D6843EA27
:10091000052322F400528D6842EA05320D4DA842AB
:100920000BD005F5A055A84207D005F58065A84273
:1009300003D005F58065A84204D124F480444D69B4
:1009400044EA85144460C3614B680364026230BCAE
:10095000704700BF002C014030B4036A026A22F4E1
:10096000803202624468426D22F4803222F07002CA
:100970000D682A4323F400338D6843EA05430D4D87
:10098000A8420BD005F5A055A84207D005F5806513
:10099000A84203D005F58065A84204D124F4803430
:1009A0004D6944EA0524446042654A6882650362F1
:1009B00030BC7047002C014030B4026A036A23F453
:1009C000801303624468436D23F0807323F4E04393
:1009D0000D6843EA052322F400128D6842EA0552AD
:1009E0000D4DA8420BD005F5A055A84207D005F53E
:1009F0008065A84203D005F58065A84204D124F49F
:100A000080244D6944EA8524446043654B68C3658E
:100A1000026230BC704700BF002C014010B4036A72
:100A2000046A24F001040462846924F0F00C4CEAA6
:100A3000021223F00A030B43826103625DF8044B48
:100A4000704710B4036A046A24F0100404628469D5
:100A500024F4704C4CEA023223F0A00343EA011361
:100A6000826103625DF8044B7047836823F0700372
:100A70000B4343F007038360704700000368264A76
:100A8000904206D0B0F1804F03D0A2F5943290424C
:100A900003D123F070034A6813431F4A904212D0D7
:100AA000B0F1804F0FD0A2F5943290420BD002F5F6
:100AB0009E32904207D002F58062904203D002F548
:100AC0008062904203D123F44073CA68134323F039
:100AD00080034A69134303608B68C3620B688362B7
:100AE0000D4B98420BD003F5A053984207D003F565
:100AF0008063984203D003F58063984201D10B696B
:100B0000036301234361036913F0010F03D00369F9
:100B100023F0010303617047002C014060B310B55E
:100B2000044690F83D3013B3022384F83D3021464B
:100B300051F8040BFFF7A2FF012384F8483084F832
:100B40003E3084F83F3084F8403084F8413084F8F7
:100B5000423084F8433084F8443084F8453084F8D7
:100B6000463084F8473084F83D30002010BD80F8CE
:100B70003C30FFF725FCD7E70120704760B310B584
:100B8000044690F83D3013B3022384F83D302146EB
:100B900051F8040BFFF772FF012384F8483084F802
:100BA0003E3084F83F3084F8403084F8413084F897
:100BB000423084F8433084F8443084F8453084F877
:100BC000463084F8473084F83D30002010BD80F86E
:100BD0003C30FFF70BFCD7E70120704730B4036AC5
:100BE000026A22F0100202624268846924F0807C6A
:100BF0002CF4E64C0C684CEA042423F020038D68A6
:100C000043EA0513124DA8420BD0124DA8420FD053
:100C100005F58065A8420BD005F58065A8420FD187
:100C200006E023F08003CD6843EA051323F0400378
:100C300022F440624D6942EA85028D6942EA8502EA
:100C4000426084614A688263036230BC704700BFBF
:100C5000002C01400040014038B590F83C30012B99
:100C600000F0958004460D46012380F83C30142A9C
:100C700000F28880DFE802F00B8686861F86868673
:100C800034868686488686865D86868671000068FC
:100C9000FFF7ACFD2268936943F008039361226873
:100CA000936923F0040393612268936929690B43D4
:100CB0009361002067E00068FFF790FF2268936966
:100CC00043F4006393612268936923F48063936122
:100CD00022689369296943EA01239361002052E065
:100CE0000068FFF7C9FD2268D36943F00803D361A8
:100CF0002268D36923F00403D3612268D369296988
:100D00000B43D36100203EE00068FFF7F3FD22684B
:100D1000D36943F40063D3612268D36923F4806309
:100D2000D3612268D369296943EA0123D361002092
:100D300029E00068FFF710FE2268536D43F00803B6
:100D400053652268536D23F0040353652268536D85
:100D500029690B435365002015E00068FFF72CFE5E
:100D60002268536D43F4006353652268536D23F486
:100D7000806353652268536D296943EA01235365F3
:100D8000002000E00120002384F83C3038BD022020
:100D9000FCE710B4846824F47F4C42EA03220A433F
:100DA00042EA0C0282605DF8044B704790F83C30D8
:100DB000012B76D010B50446012380F83C30022385
:100DC00080F83D3002689068374B034093600B68B1
:100DD000602B4CD029D8402B54D00CD9502B22D189
:100DE000CA6849682068FFF719FE50212068FFF79C
:100DF0003CFE002005E0202B0DD009D9302B0AD075
:100E00000120012384F83D30002384F83C3010BDDC
:100E10000BB1102B05D119462068FFF726FE0020E4
:100E2000EFE70120EDE70120EBE7B3F5805F34D079
:100E3000B3F5005F0CD1CB684A6889682068FFF77A
:100E4000A8FF2268936843F4804393600020D8E7AA
:100E5000702B24D1CB684A6889682068FFF799FF16
:100E60002268936843F0770393600020C9E7CA685B
:100E700049682068FFF7E5FD60212068FFF7F5FD70
:100E80000020BEE7CA6849682068FFF7C7FD402117
:100E90002068FFF7EAFD0020B3E70020B1E701205A
:100EA000AFE70220704700BF8800FEFF01F01F017E
:100EB0004FF0010C0CFA01FC036A23EA0C030362F5
:100EC000036A8A40134303627047000010B504466A
:100ED00010293CD8DFE801F0093B3B3B1F3B3B3B83
:100EE000263B3B3B2D3B3B3B340090F83E30DBB296
:100EF000013B18BF0123002B40F0828010296DD8E0
:100F0000DFE801F02C6C6C6C5C6C6C6C606C6C6C75
:100F1000646C6C6C680090F83F30DBB2013B18BF2A
:100F20000123E8E790F84030DBB2013B18BF012312
:100F3000E1E790F84130DBB2013B18BF0123DAE76B
:100F400090F84230DBB2013B18BF0123D3E790F8A1
:100F50004330DBB2013B18BF0123CCE7022384F806
:100F60003E3001222068FFF7A1FF2368274A934201
:100F70000BD002F5A052934207D002F58062934253
:100F800003D002F58062934203D15A6C42F40042CE
:100F90005A6423681D4A934224D0B3F1804F21D074
:100FA000A2F5943293421DD002F59E32934219D09D
:100FB0001A6842F001021A60002022E0022384F83D
:100FC0003F30CEE7022384F84030CAE7022384F89A
:100FD0004130C6E7022384F84230C2E7022384F896
:100FE0004330BEE799680A4A0A40062A0AD0B2F599
:100FF000803F09D01A6842F001021A60002000E028
:10100000012010BD0020FCE70020FAE7002C014081
:101010000700010001F00F014FF0040C0CFA01FC75
:10102000036A23EA0C030362036A8A4013430362E0
:101030007047000010B50446084659BB94F8443088
:10104000DBB2013B18BF0123002B5AD100283AD153
:10105000022384F84430042201462068FFF7DAFFB7
:101060002268536C43F4004353642368284A934234
:1010700039D0B3F1804F36D0A2F59432934232D0BA
:1010800002F59E3293422ED01A6842F001021A6095
:10109000002037E0042908D008290DD094F8473003
:1010A000DBB2013B18BF0123CEE794F84530DBB239
:1010B000013B18BF0123C7E794F84630DBB2013B80
:1010C00018BF0123C0E7042805D0082807D0022351
:1010D00084F84730BFE7022384F84530BBE702239A
:1010E00084F84630B7E799680A4A0A40062A0AD0C7
:1010F000B2F5803F09D01A6842F001021A60002060
:1011000000E0012010BD0020FCE70020FAE700BF4E
:10111000002C01400700010090F83C20012A33D048
:1011200030B40346012280F83C20022280F83D20A2
:10113000006842688468154DA84220D022F07002F1
:101140000D682A4342601A68104882420AD0B2F100
:10115000804F07D0A0F59430824203D000F59E3036
:10116000824204D124F080048968214391600122E5
:1011700083F83D20002083F83C0030BC704722F407
:1011800070024D682A43D9E702207047002C0140C5
:1011900090F83C30012B3BD010B40246012380F87C
:1011A0003C30CB6823F440738868034323F48063A6
:1011B0004868034323F400630868034323F480531F
:1011C0000869034323F400534869034323F480432D
:1011D000886A034323F47023886943EA0043106854
:1011E0000C4CA04206D04364002082F83C005DF81D
:1011F000044B704723F470034C6A43EA045323F012
:101200008073CC69234323F00073096A0B43EAE738
:1012100002207047002C014010B504460E4B1A788E
:101220004FF47A73B3FBF2F30C4A1068B0FBF3F09F
:1012300000F070FF68B90F2C01D901200AE00022EC
:1012400021464FF0FF3000F047FF054B1C600020A7
:1012500000E0012010BD00BF0000002008000020B9
:101260000400002008B5074A136843F01003136018
:10127000032000F01FFF0F20FFF7CEFFFFF79EFABD
:10128000002008BD00200240034A1168034B1B7870
:101290000B441360704700BF68010020000000206D
:1012A000014B1868704700BF68010020002800F05B
:1012B000FF8270B582B00446036813F0010F3BD083
:1012C000B44B5B6803F00C03042B1ED0B14B5B687E
:1012D00003F00C03082B13D06368B3F5803F68D08C
:1012E000002B40F0928003F1804303F504331A6829
:1012F00022F480321A601A6822F480221A605DE0BB
:10130000A44B5B6813F4803FE6D04FF4003393FAAC
:10131000A3F3A04B19684FF4003393FAA3F3B3FA85
:1013200083F303F01F03012202FA03F30B4203D0FD
:101330006368002B00F0BE82236813F0020F00F0F8
:10134000C480944B5B6813F00C0F00F09C80914BB1
:101350005B6803F00C03082B00F08F802369002BDF
:1013600000F0F080012292FAA2F3B3FA83F303F1C2
:10137000845303F584139B001A60FFF791FF054621
:10138000022393FAA3F3834B1968022393FAA3F37E
:10139000B3FA83F303F01F03012202FA03F30B42B3
:1013A00040F0C280FFF77CFF401B0228E8D90320F1
:1013B00089E2784A136843F480331360754AD36A2C
:1013C00023F00F03A1680B43D3626368002B36D070
:1013D000FFF766FF05464FF4003393FAA3F36D4B16
:1013E00019684FF4003393FAA3F3B3FA83F303F0CD
:1013F0001F03012202FA03F30B429DD1FFF750FFB6
:10140000401B6428E7D903205DE2B3F5A02F09D083
:10141000604B1A6822F480321A601A6822F4802223
:101420001A60CBE703F18043A3F53C331A6842F41A
:1014300080221A601A6842F480321A60BEE7FFF711
:101440002FFF05464FF4003393FAA3F3514B19686D
:101450004FF4003393FAA3F3B3FA83F303F01F03BB
:10146000012202FA03F30B423FF466AFFFF718FFC5
:10147000401B6428E6D9032025E2464B5B6813F441
:10148000803F7FF46BAF022393FAA3F3414B1968BB
:10149000022393FAA3F3B3FA83F303F01F030122A9
:1014A00002FA03F30B4203D02369934240F0048213
:1014B0003848036823F0F8036169F82292FAA2F22F
:1014C000B2FA82F291400B430360236813F0080FD5
:1014D00000F08C80A369002B60D0012191FAA1F269
:1014E000B2FA82F22C4B13449B001960FFF7D8FE2E
:1014F0000546022393FAA3F293FAA3F293FAA3F216
:10150000244A516A93FAA3F3B3FA83F303F01F0357
:10151000012202FA03F30B4268D1FFF7C1FE401B20
:101520000228E6D90320CEE11A48036823F0F80325
:101530006169F82292FAA2F2B2FA82F291400B4368
:101540000360C2E7012393FAA3F3B3FA83F303F131
:10155000845303F584139B0000221A60FFF7A0FE5A
:101560000546022393FAA3F30A4B1968022393FA60
:10157000A3F3B3FA83F303F01F03012202FA03F388
:101580000B42A2D0FFF78CFE401B0228E9D90320B2
:1015900099E100BF0010024020819010012292FAD0
:1015A000A2F2B2FA82F2B74B13449B0000221A60F7
:1015B000FFF776FE0546022393FAA3F293FAA3F20D
:1015C00093FAA3F2B04A516A93FAA3F3B3FA83F3FE
:1015D00003F01F03012202FA03F30B4206D0FFF7C8
:1015E0005FFE401B0228E6D903206CE1236813F05C
:1015F000040F00F0A980A44BDB6913F0805F20D1B9
:10160000A14BDA6942F08052DA61DB6903F0805362
:101610000193019B01259D4B1B6813F4807F12D021
:10162000E368012B23D073BB03F1804303F504333C
:101630001A6A22F001021A621A6A22F004021A627D
:101640001AE00025E7E7914A136843F480731360BA
:10165000FFF726FE06468D4B1B6813F4807FDFD113
:10166000FFF71EFE801B6428F5D903202BE1864A74
:10167000136A43F001031362E368002B3CD0FFF7C9
:101680000FFE06462EE0052B09D07F4B1A6A22F08A
:1016900001021A621A6A22F004021A62ECE77A4B1B
:1016A0001A6A42F004021A621A6A42F001021A62CD
:1016B000E2E7022393FAA3F3734B596A022393FAE6
:1016C000A3F3B3FA83F303F01F03012202FA03F337
:1016D000194238D1FFF7E4FD801B41F2883398426C
:1016E00000F2EC80022393FAA3F293FAA3F3002B07
:1016F000DFD0654B196AE1E7FFF7D2FD064618E037
:10170000022393FAA3F3604B596A022393FAA3F3DB
:10171000B3FA83F303F01F03012202FA03F3194221
:1017200011D0FFF7BDFD801B41F28833984200F2D3
:10173000C780022393FAA3F293FAA3F3002BDFD01E
:10174000514B196AE1E7B5BBE369002B00F0BA80A1
:101750004D4A526802F00C02082A00F09980022BD0
:101760002FD04FF0807393FAA3F3B3FA83F303F10E
:10177000845303F584139B0000221A60FFF790FD49
:1017800004464FF0007393FAA3F33F4B19684FF0F0
:10179000007393FAA3F3B3FA83F303F01F03012258
:1017A00002FA03F319426BD0FFF77AFD001B0228FF
:1017B000E7D9032087E0344AD36923F08053D3610B
:1017C000C2E74FF0807393FAA3F3B3FA83F303F104
:1017D000845303F584139B0000221A60FFF760FD19
:1017E00005464FF0007393FAA3F3274B19684FF0A7
:1017F000007393FAA3F3B3FA83F303F01F030122F8
:1018000002FA03F3194206D0FFF74AFD401B0228F3
:10181000E7D9032057E01C494B6823F47413626A2C
:10182000206A024313434B604FF0807393FAA3F393
:10183000B3FA83F303F1845303F584139B0001226D
:101840001A60FFF72DFD04464FF0007393FAA3F3DF
:101850000D4B19684FF0007393FAA3F3B3FA83F3B7
:1018600003F01F03012202FA03F3194206D1FFF726
:1018700017FD001B0228E7D9032024E0002022E006
:10188000002020E0208190100010024000700040F5
:10189000012B1AD0104B5B6803F48031226A91420D
:1018A00015D103F47013626A934212D100200AE04A
:1018B00001207047012006E0012004E0032002E03F
:1018C000032000E0002002B070BD0120FBE70120F2
:1018D000F9E70120F7E700BF001002400F4B5B68FB
:1018E00003F00C02082A01D00D487047C3F383426D
:1018F0000C49885C094AD26A02F00F020A498A5CE4
:1019000013F4803F05D0064BB3FBF2F303FB00F06A
:101910007047064B03FB00F0704700BF0010024009
:1019200000127A00905100088051000800093D0023
:10193000002800F0BE8070B50D460446614B1B6860
:1019400003F007038B420BD25E4A136823F00703B0
:101950000B431360136803F007038B4240F0AB8026
:10196000236813F0020F06D0574A536823F0F003A0
:10197000A1680B435360236813F0010F5AD06368CA
:10198000012B2DD0022B40D0022292FAA2F24E4A15
:101990001068022292FAA2F2B2FA82F202F01F0258
:1019A000012101FA02F2104200F0878046494A689C
:1019B00022F0030213434B60FFF772FC0646424BD2
:1019C0005B6803F00C036268B3EB820F32D0FFF761
:1019D00067FC801B41F288339842F0D9032067E00E
:1019E0004FF4003292FAA2F2374A10684FF40032F4
:1019F00092FAA2F2B2FA82F202F01F02012101FA77
:101A000002F20242D2D1012052E04FF0007292FA6B
:101A1000A2F22D4A10684FF0007292FAA2F2B2FAC6
:101A200082F202F01F02012101FA02F21042BDD13E
:101A300001203DE0234B1B6803F00703AB420AD9AA
:101A4000204A136823F007032B431360136803F045
:101A50000703AB4233D1236813F0040F06D01A4AB0
:101A6000536823F4E063E1680B435360236813F089
:101A7000080F07D0144A536823F46053216943EADE
:101A8000C1035360FFF72AFF0F4B5B6803F0F003BD
:101A9000F02292FAA2F2B2FA82F2D3400B4AD35C5D
:101AA000D8400B4B18600B4B1868FFF7B5FB0020B4
:101AB00070BD012070470120FAE70120F8E70120FE
:101AC000F6E700BF0020024000100240A8510008C5
:101AD0000800002004000020014B1868704700BF78
:101AE0000800002008B5FFF7F7FF074B5B6803F419
:101AF000E0634FF4E06292FAA2F2B2FA82F2D340CB
:101B0000024AD35CD84008BD00100240A051000832
:101B100008B5FFF7E1FF074B5B6803F460534FF430
:101B2000605292FAA2F2B2FA82F2D340024AD35C35
:101B3000D84008BD00100240A0510008F0B583B0A5
:101B40000446036813F4803F44D05C4BDB6913F018
:101B5000805F6DD1594BDA6942F08052DA61DB69FE
:101B600003F080530193019B0125554B1B6813F42F
:101B7000807F5FD0514B1B6A13F4407321D06268A1
:101B800002F440729A421CD04C48016A21F440761B
:101B90004FF4803393FAA3F2B2FA82F2494F3A44F7
:101BA00092004FF0010CC2F800C093FAA3F3B3FA0D
:101BB00083F33B449B0000221A60066211F0010F80
:101BC0004CD13E4A136A23F4407361680B4313629D
:101BD000002D69D1236813F0010F06D0374A136B2B
:101BE00023F00303A1680B431363236813F0200F52
:101BF00006D0324A136B23F01003E1680B431363E2
:101C0000236813F0800F06D02C4AD36A23F4F873AC
:101C100021690B43D362236813F4805F4BD0274ABA
:101C2000136B23F4807361690B431363002043E05B
:101C300000259AE7224A136843F480731360FFF784
:101C40002FFB06461E4B1B6813F4807F92D1FFF7D3
:101C500027FB801B6428F5D903202DE0FFF720FB2C
:101C6000064617E0022393FAA3F3144B596A0223A2
:101C700093FAA3F3B3FA83F303F01F03012202FAEA
:101C800003F30B429DD1FFF70BFB801B41F288331E
:101C900098420ED8022393FAA3F293FAA3F3002BEF
:101CA000E0D0064B196AE2E7D36923F08053D36191
:101CB00090E7032000E0002003B0F0BD00100240D8
:101CC0000070004000819010F0B583B0002362E006
:101CD00085685E000324B44025EA0405CC68B4405E
:101CE0002C438460456825EA0C054C68C4F3001455
:101CF0009C402C4344605FE0DD08083550F82540E7
:101D000003F0070C4FEA8C0C4FF00F0E0EFA0CFE8E
:101D100024EA0E0E0C6904FA0CF444EA0E0440F8AE
:101D2000254060E0032400E0002404FA0EF42C4374
:101D30000CF1020C4F4D45F82C404F4CA568D44394
:101D400025EA02064F6817F4801F01D042EA050613
:101D5000494DAE60ED6804EA05064F6817F4001FB0
:101D600001D042EA0506444DEE606D6804EA0506BE
:101D70004F6817F4003F01D042EA05063E4D6E6001
:101D80002D682C404E6816F4803F01D042EA0504CD
:101D9000394A146001330A6832FA03F468D04FF00C
:101DA000010C0CFA03FC1CEA0202F3D04C6804F0AC
:101DB0000304013C012C8BD94C6804F00304032C70
:101DC0000CD0C4685D004FF0030C0CFA05FC24EA4B
:101DD0000C0C8C68AC4044EA0C04C4604C6804F001
:101DE0000304022C88D004684FEA430E4FF0030C22
:101DF0000CFA0EFC24EA0C0C4C6804F0030404FA00
:101E00000EF444EA0C0404604C6814F4403FC1D062
:101E10001A4CA56945F00105A561A46904F0010407
:101E20000194019C4FEA930C0CF10205114C54F8FB
:101E3000255003F0030E4FEA8E0E0F2404FA0EF421
:101E400025EA0405B0F1904F3FF46EAF0C4CA04270
:101E50000AD004F58064A04208D004F58064A04252
:101E60003FF460AF052460E701245EE702245CE7ED
:101E700003B0F0BD0000014000040140001002402A
:101E80000004004830B40124056CAC40C56B6C60A4
:101E9000046863604368102B05D003689960036889
:101EA000DA6030BC704703689A600368D960F8E76D
:101EB0000268054B1344054AA2FB03231B099B0040
:101EC0000364034BC3637047F8FFFDBFCDCCCCCC9C
:101ED0000000024020B310B50446022380F82130F0
:101EE00001680A6822F47F5222F030024368806859
:101EF0000343E06803432069034360690343A06927
:101F00000343E069034313430B602046FFF7D0FF10
:101F10000020A063012384F8213084F8200010BD44
:101F20000120704738B5044690F82000012831D0D0
:101F3000012084F8200094F82100012804D0002317
:101F400084F82030022038BD022084F821000020CF
:101F5000A0632568286820F0010028602046FFF76C
:101F600091FFE36A5BB12268136843F00E031360CC
:101F70002268136843F0010313600020E3E722683E
:101F8000136843F00A0313602268136823F0040304
:101F90001360EDE70220D6E738B5C36B1A68046812
:101FA0002568016C04238B40134213D015F0040FF5
:101FB00010D0236813F0200F03D1236823F004030B
:101FC0002360016CC26B04238B405360C36A03B16E
:101FD000984738BD02238B4013421AD015F0020FE8
:101FE00017D0236813F0200F06D1236823F00A03CB
:101FF0002360012380F82130016CC26B02238B40E7
:102000005360002380F82030836A002BE1D098478A
:10201000DFE708238B401342DBD015F0080FD8D040
:10202000236823F00E032360026CC16B012303FAC3
:1020300002F24A60836380F82130002380F8203068
:10204000036B002BC5D09847C3E70000002808DBCE
:102050000901C9B200F1604000F5614080F8001349
:10206000704700F00F000901C9B2014B19547047C5
:1020700014ED00E000B500F00700C0F1070CBCF162
:10208000040F28BF4FF0040C031D062B0FD9C31EED
:102090004FF0FF3E0EFA0CF021EA000199400EFAD3
:1020A00003FE22EA0E0241EA02005DF804FB00236F
:1020B000EEE70000074AD36823F4E0631B041B0C1F
:1020C000000200F4E060034343F0BF6343F40033D5
:1020D000D360704700ED00E010B50446054BD868AA
:1020E000C0F30220FFF7C6FF01462046FFF7AEFF10
:1020F00010BD00BF00ED00E0002807DB00F01F026C
:10210000400901239340024A42F82030704700BF43
:1021100000E100E00138B0F1807F0BD24FF0E02306
:102120005861054AF02182F82310002098610722A7
:102130001A6170470120704700ED00E0034AD2F8B1
:10214000883043F47003C2F88830704700ED00E037
:1021500010B503460C4A0D490D48006840B10C48C3
:1021600000680344521A934206D8094A136010BD0E
:102170000748084C0460F2E701F0E6FC0C2303601A
:102180004FF0FF30F3E700BF0030002000040000F4
:102190006C0100200805002070B50C46164600258D
:1021A00006E0AFF30080214601F8010B01350C4633
:1021B000B542F6DB304670BD4FF0FF3070474FF44C
:1021C00000534B600020704701207047002070478B
:1021D00000B587B000230093019302930393049307
:1021E00005932448244A026043608360012202610F
:1021F000427680F82030C3628262C3600321C161ED
:1022000080F83020042242610376436300F0E0F955
:1022100018BB02230093012301930023039306229A
:102220000292049305936946124800F075FBB8B911
:10223000032300930223019369460E4800F06CFBD0
:1022400088B901230093032301936946094800F0EC
:1022500063FB58B907B05DF804FBFEF715F8D8E743
:10226000FEF712F8E4E7FEF70FF8EAE7FEF70CF8DE
:10227000F0E700BFB40100200001005010B588B0A5
:102280000023039304930593069307930268214B5D
:102290009A4201D008B010BD04461F4B5A6942F063
:1022A00080525A615A6902F080520192019A5A6929
:1022B00042F400325A615B6903F400330293029BDB
:1022C000702303930323049303A94FF09040FFF777
:1022D000FBFC1248124B03600023436083608022A2
:1022E000C2604FF4807202614FF48062426120222A
:1022F0008261C361FFF7EEFD40B90A4A136D43F4F2
:1023000040731365054BA3635C62C3E7FDF7BCFF35
:10231000F3E700BF000100500010024070010020F0
:10232000440002400000014008B50B480B4B03601D
:102330004FF4E133436000238360C36003610C22E8
:1023400042618361C3610362436200F0F4FE00B93D
:1023500008BDFDF799FFFBE78C0200200038014023
:1023600008B50B480B4B03604FF4E1334360002387
:102370008360C36003610C2242618361C3610362B5
:10238000436200F0D8FE00B908BDFDF77DFFFBE712
:10239000040200200044004000B58BB000230593E8
:1023A00006930793089309930368254A934205D03F
:1023B000244A934222D00BB05DF804FB224B9A6969
:1023C00042F480429A619A6902F480420192019A31
:1023D0005A6942F480225A615B6903F480230293B4
:1023E000029BC0230593022306930323089307232C
:1023F000099305A91548FFF767FCDCE7124BDA697A
:1024000042F40032DA61DA6902F400320392039A8C
:102410005A6942F400325A615B6903F40033049351
:10242000049B0C230593022306930323089307239D
:10243000099305A94FF09040FFF746FCBBE700BFAA
:1024400000380140004400400010024000040048F1
:1024500070477047704738B50268936803F003030C
:10246000012B01D0002038BD0446136813F0010F82
:1024700033D0936803F00D03012B09D0036C43F0B4
:1024800010030364436C43F0010343640120EAE753
:10249000936843F002039360036803221A60FEF717
:1024A000FFFE054623689B6813F0010F13D0FEF76B
:1024B000F7FE401B0228F5D923689B6813F0010F33
:1024C000F0D0236C43F010032364636C43F00103EA
:1024D00063640120C7E70020C5E70020C3E70000D0
:1024E00038B504460268936803F00303012B0DD04E
:1024F00091681A4B19420FD0236C43F010032364E8
:10250000636C43F001036364012038BD136813F06A
:10251000010FEDD00020F8E7936843F001039360CA
:10252000FEF7BEFE054623681B6813F0010F13D1AA
:10253000FEF7B6FE431B022BF5D923681B6813F088
:10254000010FF0D1236C43F010032364636C43F05C
:10255000010363640120D8E70020D6E73F00008034
:1025600008B5406A036C43F040030364436C43F0D6
:1025700004034364FFF76EFF08BD08B5406AFFF728
:1025800068FF08BD08B5436A1A6C12F0500F1AD1E3
:102590001A6C42F400721A641A68D26812F4406F1E
:1025A0000DD15A7E5AB91A6C22F480721A641A6CD0
:1025B00012F4805F03D11A6C42F001021A641846CB
:1025C000FFF746FF08BD9B6B1B6B9847FAE70000BF
:1025D00030B597B000230193002800F0F78004463F
:1025E000036C13F0100F52D1036CABB100202368C1
:1025F0009A6812F0805F03D09B6813F0005F47D0A9
:10260000236C23F0120343F010032364636C43F044
:102610000103636401203BE04364C364836480F886
:102620003C30FFF72BFE23689B6813F0805F01D0DE
:102630000020DCE72046FFF70EFF236C13F0100F9D
:10264000D5D10028D3D1236C23F4885323F002037F
:1026500043F0020323642268936823F0405393609D
:102660002268936843F080539360594B1B68594A22
:10267000A2FB03239B0C03EB83035B00019302E0AB
:10268000019B013B0193019B002BF9D1AFE7002097
:10269000236C13F0100F40F09080002840F08D80E4
:1026A0002368996811F0040140F08780226C22F4BD
:1026B000817242F002022264B3F1A04F54D04FF075
:1026C000A04202929A6802F00302012A4FD0029BB4
:1026D00023B19A6802F00302012A4DD03E4A936862
:1026E00023F4403365682B439360627E5303656B2C
:1026F000012D01D04FF480510B43E1680B43A168D9
:102700000B4394F8201001293BD0A26A012A02D081
:10271000E16A0A4313432268916811F00C0F0CD14F
:10272000D16821F4804121F00201D160217E94F82A
:102730003020520042EA813213432168CD68274A93
:102740002A401A43CA602369012B2DD02268136BDB
:1027500023F00F03136300236364236C23F003034C
:1027600043F0010323642FE01D4A0292AAE71B688D
:1027700013F0010FB9D1AAE71B6813F0010FB4D110
:10278000ACE732B9626A013A43EA424242F480332A
:10279000BBE7226C22F0220242F020022264626C2B
:1027A00042F001026264B0E721680B6B23F00F0373
:1027B000E269013A13430B63CDE7236C23F0120364
:1027C00043F010032364012017B030BD0120FBE764
:1027D0000800002083DE1B430003005007C0F0FF09
:1027E00000010050F8B504460068806810F0040F3E
:1027F00040F083800E46154694F83C30012B7ED085
:10280000012384F83C303F4B9B6813F01F0F05D029
:10281000002384F83C3001273846F8BD2046FFF7F6
:102820005FFE0746002864D1236C23F4706323F015
:10283000010343F480732364324B9B6813F01F0F32
:1028400017D02268B2F1A04F13D0236C43F4801349
:1028500023642D4B9A421BD14FF0A043DB6813F049
:10286000007F15D0236C23F4405343F4805323643A
:102870000EE0236C23F4801323642368DB6813F0D9
:10288000007F05D0236C23F4405343F4805323642A
:10289000236C13F4805F29D0636C23F00603636418
:1028A000002384F83C30A36B184A9A62A36B184A41
:1028B000DA62A36B174A1A6323681C221A60226823
:1028C000536843F0100353602268D36843F0010358
:1028D000D36021682B4632464031A06BFFF722FBC4
:1028E0002268936843F00403936095E700236364D0
:1028F000D6E7002384F83C308EE702278CE70227D6
:102900008AE700BF00030050000100508525000841
:102910007B2500086125000830B496B000220192A2
:1029200090F83C20012A00F0A5810346012280F89E
:102930003C200068826812F0040F40F090814A68E1
:10294000042A35D8046B02EB420252004FF01F0CF0
:102950000CFA02FC24EA0C0C0C6894404CEA0404C7
:1029600004631868826812F00C0F6BD10A68092A98
:102970004FD9846902EB42021E3A4FF0070C0CFA61
:1029800002FC24EA0C048D6805FA02F222438261FB
:1029900048691C68E268C2F3C102520090400A69AB
:1029A000013A032A00F28D80DFE802F0426A758066
:1029B000092A10D8446B02EB420252001E3A4FF033
:1029C0001F0C0CFA02FC24EA0C040D6805FA02F252
:1029D00022434263C5E70E2A0DD8846B02EB420204
:1029E00052003C3A1F25954024EA05040D689540A5
:1029F0002C438463B5E7C46B02EB420252005A3A9F
:102A00001F25954024EA05040D6895402C43C463B6
:102A1000A7E7446902EB42024FF0070C0CFA02FCF4
:102A200024EA0C048D6805FA02F222434261AFE702
:102A3000256E914A2A400D6840EA85652A4342F096
:102A4000004222661868826802F00302012A68D0F8
:102A5000CA68012A6BD0D0F8B02001240D68AC40C0
:102A600022EA0402C0F8B0200A68102A00F086802A
:102A7000112A00F0A480122A00F0A7800020F3E0C1
:102A8000656E7D4A2A400D6840EA85652A4342F01A
:102A900000426266D6E7A56E774A2A400D6840EA92
:102AA00085652A4342F00042A266CBE7E26E724D92
:102AB00015400A6840EA8262154345F00045E56624
:102AC000C0E7226E02F0F8420868B2EB806F03D1D3
:102AD000226E22F0004222661A68506E00F0F84022
:102AE0000C68B0EB846F03D1506E20F0004050664C
:102AF0001A68906E00F0F8400C68B0EB846F03D158
:102B0000906E20F0004090661A68D06E00F0F84099
:102B10000C68B0EB846F95D1D06E20F00040D06689
:102B200090E7026812F0010F92D000209CE0D0F8EC
:102B3000B0200D680124AC402243C0F8B0200A68E0
:102B4000092A0DD91D68A86902EB42021B3A072425
:102B5000944020EA04008C6894402043A86183E7F5
:102B60001D686869013202EB42020724944020EAA2
:102B700004008C6894402043686175E73F49896888
:102B800011F4000F7FF474AF1868B0F1A04F23D098
:102B90004FF0A0410291816801F0030101291ED08C
:102BA000029921B18C6804F00304012C21D0102A71
:102BB00024D0112A42D0122A4AD0002054E02F49B2
:102BC000896811F0807FDFD055E72C49896811F4BE
:102BD000800FD9D0002047E029490291DBE7016846
:102BE00011F0010FDCD01A6C42F020021A640120AF
:102BF0003AE0096811F0010FF5D1D8E7B0F1A04F24
:102C0000D7D11E498A6842F400028A601D4A1268C0
:102C1000A1F14E61A1F58421A1F27D41A1FB021237
:102C2000920C02EB82025200019202E0019A013AF8
:102C30000192019A002AF9D1002015E0B0F1A04FCD
:102C4000B9D10E498A6842F080728A6000200BE098
:102C50000A498A6842F480028A60002004E01A6C03
:102C600042F020021A640120002283F83C2016B0B2
:102C700030BC70470220FAE700F0FF8300030050E9
:102C80000001005008000020026852E8003F23F4D1
:102C9000907342E800310029F6D1026802F108037E
:102CA00053E8003F23F00103083242E800310029D5
:102CB000F3D1036E012B06D02023C0F8803000230F
:102CC000036683667047026852E8003F23F01003F2
:102CD00042E800310029F6D1EEE7000010B50446C5
:102CE00083680269134342691343C269134301684D
:102CF00008684E4A02401A430A602268536823F467
:102D00004053E1680B435360A269236A1A43216868
:102D10008B6823F4306313438B602368444A9342E7
:102D200014D0444A934227D002F5806293421FD0C8
:102D30001023E069B0F5004F20D0082B70D8DFE8F1
:102D400003F04A60486F636F6F6F66003A4B1B6B0E
:102D500003F00303032B09D8DFE803F00204060C99
:102D60000023E6E70423E4E70823E2E71023E0E793
:102D70000023DEE70223DCE70023DAE7082B49D84B
:102D8000DFE803F0051F2548224848480900FEF700
:102D9000A9FE002840D06268530803EB4003B3FB50
:102DA000F2F3A3F110014FF6EF72914236D89AB2C6
:102DB00022F00F02C3F3420313432268D3600020C2
:102DC0001BE0FEF7A5FEE4E7FEF788FDE1E71B4800
:102DD000E1E71A4802E0FEF785FE18B3636800EBEE
:102DE0005300B0FBF3F0A0F110024FF6EF739A42DC
:102DF0001AD8236880B2D86000200023A366E36657
:102E000010BDFEF785FEE8E7FEF768FDE5E74FF445
:102E10000040E3E70120F0E70020EEE70120ECE7C7
:102E20000120EAE70020E8E70120E6E7F369FFEF89
:102E300000380140004400400010024000127A00B7
:102E4000436A13F0080F06D00268536823F4004366
:102E5000416B0B435360436A13F0010F06D00268C5
:102E6000536823F40033816A0B435360436A13F0C1
:102E7000020F06D00268536823F48033C16A0B4303
:102E80005360436A13F0040F06D00268536823F4BA
:102E90008023016B0B435360436A13F0100F06D07D
:102EA0000268936823F48053816B0B439360436AF9
:102EB00013F0200F06D00268936823F40053C16B0F
:102EC0000B439360436A13F0400F0AD002685368C3
:102ED00023F48013016C0B435360036CB3F5801F24
:102EE0000BD0436A13F0800F06D00268536823F4B6
:102EF0000023816C0B43536070470268536823F4CE
:102F0000C003416C0B435360EBE72DE9F8430546E2
:102F10000E4617469946DDF820802B68DC6936EAB4
:102F200004040CBF01240024BC4236D1B8F1FF3F99
:102F3000F3D0FEF7B5F9A0EB0900404530D8B8F161
:102F4000000F2FD02B681A6812F0040FE5D0802EE6
:102F5000E3D0402EE1D0DA6912F0080F11D1DA691E
:102F600012F4006FD9D04FF400621A622846FFF7BE
:102F70008BFE2023C5F88430002385F878300320A9
:102F80000CE008241C622846FFF77EFEC5F884404A
:102F9000002385F87830012000E00020BDE8F883A8
:102FA0000320FBE70320F9E72DE9F04182B01E463C
:102FB000C36F202B56D104460D469046002955D0AC
:102FC0000AB901204FE00023C0F884302123C367F1
:102FD000FEF766F90746A4F85080A4F85280A3686B
:102FE000B3F5805F02D04FF0000818E0236913B1F9
:102FF0004FF0000813E0A846002510E02023E36707
:10300000032030E038F8023B2268C3F3080313853D
:10301000B4F8522092B2013A92B2A4F85220B4F815
:1030200052309BB27BB100963B4600228021204665
:10303000FFF76BFF0028E1D1002DE3D015F8012B3D
:1030400023681A85E4E700963B460022402120468B
:10305000FFF75BFF10B92023E36704E02023E36759
:10306000032000E0022002B0BDE8F0810120FAE771
:1030700030B583B004460023C0F88430FEF710F961
:1030800005462268126812F0080F0FD123681B68EA
:1030900013F0040F26D12023E367C4F8803000200A
:1030A0002066606684F8780003B030BD6FF07E4320
:1030B0000093034600224FF400112046FFF725FF3E
:1030C0000028E3D0226852E8003F23F0800342E862
:1030D00000310029F6D12023E367002384F87830FB
:1030E0000320E1E76FF07E4300932B4600224FF46C
:1030F00080012046FFF709FF0028CCD0226852E863
:10310000003F23F4907342E800310029F6D1226891
:1031100002F1080353E8003F23F00103083242E8BC
:1031200000310029F3D12023C4F88030002384F833
:1031300078300320B8E768B310B50446C36F03B313
:103140002423E3672268136823F001031360636A92
:10315000E3B92046FFF7C2FD012811D02268536869
:1031600023F4904353602268936823F02A0393600A
:103170002268136843F0010313602046FFF778FFCD
:1031800010BD80F87830FFF707F9D9E72046FFF740
:1031900057FEDEE70120704710B504460846114689
:1031A000206062600023E360FDF790FE61682068A4
:1031B000FDF740FF2368DB68A36010BD10B51C4815
:1031C00000F090FC1B4B19681B4800F023FC032205
:1031D0001A491B48FFF706FB002206E0174B33F89D
:1031E0001230002BFAD00132D2B2022AF6D9154899
:1031F00000F078FC144C002221461448FFF7CCFF65
:10320000042221461248FFF7C7FF124C0022214634
:103210001148FFF7C1FF042221461048FFF7BCFF09
:1032200000F0E6F80D210E4800F00CF910BD00BFCB
:10323000B851000808000020C451000840030020D5
:10324000B4010020DC510008D000002078030020E9
:103250006803002084000020580300204803002059
:103260001403002008B5B2EE040A034B1988034882
:1032700000F00CF9F7E700BF400300201403002022
:10328000B5EEC00AF1EE10FA09D4F7EE007AB4EE0A
:10329000E70AF1EE10FA04DDB0EE670A01E09FEDF7
:1032A0001B0AD0ED027AF8EE677A27EE800ABDEEAF
:1032B000C00A436823B903681B6883ED0D0A704791
:1032C000043B0C2B1CD8DFE803F0071B1B1B0C1B5B
:1032D0001B1B111B1B1B160003681B6883ED0E0ACA
:1032E000704703681B6883ED0F0A704703681B680B
:1032F00083ED100A704703681B6883ED160A704758
:1033000003681B6883ED170A704700BF00000000C8
:1033100008B52DED028BF0EE608AB0EE418ADFED4C
:10332000157AB4EEE70AF1EE10FA01DDB0EE670AA5
:10333000DFED107AF4EEE78AF1EE10FA01DDF0EE3F
:10334000678ADFED0C7AB4EEE78AF1EE10FA01DD60
:10335000B0EE678A0848FFF793FFB0EE680A0748A7
:10336000FFF78EFFB0EE480A0548FFF789FFBDEC76
:10337000028B08BDA4707D3FAC0300209C0300209D
:103380008C03002080ED000AC0ED010A80ED021AD6
:103390000023C3600361C0ED051A704710B50446F1
:1033A00008461146206062600023E360FDF78EFD51
:1033B00061682068FDF73EFE2368DB68A36010BDEE
:1033C00008B52DED028B094B5B6802689B1A07EE6E
:1033D000903AB8EE678AFEF781FA00EE100AB8EE6E
:1033E000400A88EE000ABDEC028B08BD001000E028
:1033F00010B50F4C002221460E48FFF7CFFF0422E4
:1034000021460D48FFF7CAFF082221460B48FFF767
:10341000C5FF0B4AD2F8FC3043F08073C2F8FC3091
:10342000A2F55D42136843F00103136010BD00BFB5
:103430001C010020AC0300209C0300208C03002012
:1034400000ED00E038B52DED028B04460D469FEDF2
:103450000C8ADFED0C1AB0EE481AF0EE480A9FED28
:103460000A0A1430FFF78EFF84ED008A84ED018A8A
:1034700084ED028A84ED038A2574BDEC028B38BD8D
:1034800000000000A4707D3F6F12833A38B52DED27
:10349000068B0446B1F5805F01D340F6FF7107EE5D
:1034A000901AF8EE677A9FED427A67EE877A237C6E
:1034B00007EE103AB8EEC77A67EE277AC4ED017AC4
:1034C00005E09FED3C7A77EEC77AC4ED017AD4ED42
:1034D000017A9FED387AF4EEC77AF1EE10FAF0DA5D
:1034E00005E09FED347A77EE877AC4ED017AD4ED6A
:1034F000017AF5EEC07AF1EE10FAF2D42E4D28469C
:10350000FFF75EFF2D4B5B682B6094ED019AD4EDC5
:10351000027A79EE677A9FED2A7AF4EEC77AF1EEB5
:1035200010FA38DD9FED237A77EEC77AB5EEC00A40
:10353000F1EE10FA03DD87EE807A84ED037A84EDF4
:10354000029A4FF07A532360B0EE490A01F0D4F8A2
:10355000B4EE00AA20EE0A8AF6EE009A38EE298A26
:10356000DFED18AA39EE6A0A01F0C6F860EE0A8AA1
:1035700078EEA98A39EE2A0A01F0BEF820EE0A1A7E
:1035800031EE291AF0EE680AB0EE480AFFF7C0FEE5
:10359000BDEC068B38BD9FED0C7AF4EEC77AF1EEE8
:1035A00010FAC3D59FED037A77EE877ABEE700BFA6
:1035B0006D1CC93AD00FC94088030020001000E0FC
:1035C000D00F49408B0A0640D00F49C000B583B0E8
:1035D0000A4B5A6942F001025A615B6903F0010328
:1035E0000193019B002211460E20FEF775FD0E206F
:1035F000FEF782FD03B05DF804FB00BF001002403F
:10360000DFF834D0FEF79AFD0C480D490D4A00232F
:1036100002E0D458C4500433C4188C42F9D30A4A87
:103620000A4C002301E013600432A242FBD300F0F5
:1036300091FAFCF771FEFEE7003000200000002048
:1036400068000020005600086800002008050020DF
:10365000FEE7B1FA81F252094FF48063520000F0A4
:1036600001B800002DE9F7431D46574B1F6804467B
:103670000E46904627B13B6A13B9384600F032F93E
:10368000B8F1020F06D0B8F1010F00F29A80002DB8
:10369000C0F29780636ED90705D4A3899A0502D436
:1036A000A06D00F07CFA2146384600F0C3FE616B45
:1036B00041B104F14403994202D0384600F072FA55
:1036C000002363630023A3616360A3891B0603D502
:1036D0002169384600F066FAA38923F44A6323F08F
:1036E0000303B8F1020FA38161D001AB6A46214602
:1036F000384600F02DF9A3891843A0812DBB009D09
:10370000284600F0DBFB0646002852D1DDF8009089
:10371000A94540D14FF0FF35B4F90C3043F0020217
:10372000A2810022A26004F14702226022610122EC
:103730006261626ED60704D4980502D4A06D00F0D1
:103740002FFA284603B0BDE8F083002ED8D03B6A9C
:1037500013B9384600F0C6F8B8F1010F08BFA389C5
:10376000266004BF43F00103A381B4F90C3013F0C9
:103770000802C4E904651ED0D90741BF00226D428A
:10378000A260A56158BFA560626ED20701D49B05F7
:1037900013D50025D5E7484600F090FB06460028E3
:1037A000B8D0A38943F08003A3814D46CFE700251D
:1037B000B2E7A946F5E7A260E6E7A06D00F0F0F9F0
:1037C000E7E74FF0FF35BCE718000020002310B5F5
:1037D0000446C0E90033C0E9043383608181436655
:1037E000C2818361194608225C3000F083F90D4BD9
:1037F00063620D4BA3620D4BE3620D4B23630D4BD4
:1038000024629C4206D003F16802944202D0D03375
:103810009C4205D104F15800BDE8104000F0BEB94B
:1038200010BD00BF9D440008BF440008F7440008D5
:103830001B450008BC030020024A0349034800F06E
:1038400069B800BF0C000020354400081C000020AF
:1038500041680C4B994210B5044601D000F0EAFDD6
:10386000A168094B994202D0204600F0E3FDE168CF
:10387000064B994204D02046BDE8104000F0DABD66
:1038800010BD00BFBC030020240400208C040020D5
:1038900010B50B4B0B4C0C4A1A6020460022042139
:1038A000FFF794FF04F1680001220921FFF78EFF62
:1038B00004F1D0000222BDE810401221FFF786BFBC
:1038C000F4040020BC03002039380008014800F04F
:1038D00066B900BFF9040020014800F061B900BFDB
:1038E000F904002010B50446FFF7F0FF236A1BB16E
:1038F000BDE81040FFF7F0BF044B2362044B1B6888
:10390000002BF5D1FFF7C4FFF2E700BF51380008E4
:10391000F40400202DE9F8430746884614460026A3
:10392000D4E90195B9F1010905D52468002CF7D136
:103930003046BDE8F883AB89012B07D9B5F90E30C5
:10394000013303D029463846C04706436835E9E7C6
:1039500070B50C46B1F90E10002996B015461E46FA
:103960000DDAA38913F0800F4FF0000114BF40233C
:103970004FF48063002031602B6016B070BD6A4642
:1039800000F0C0F80028ECDB019901F47041A1F5CA
:103990000053594259414FF48063EBE78B89F7B5E7
:1039A0009D0706460C4607D504F1470323602361B3
:1039B0000123636103B0F0BD01AB6A46FFF7C8FFA6
:1039C000009F05463946304600F0A2FA48B9B4F9DE
:1039D0000C309A05EED423F0030343F00203A381D5
:1039E000E2E7A389206043F08003A381019BC4E93F
:1039F00004075BB1B4F90E10304600F095F828B119
:103A0000A38923F0030343F00103A381A3891D438A
:103A1000A581CFE70FB407B5064904AB086853F892
:103A2000042B8168019300F031F903B05DF804EBD9
:103A300004B0704718000020036A70B5846805461A
:103A40000E460BB9FFF74EFF636EDB0705D4A38963
:103A5000980502D4A06D00F0A2F8A389190702D539
:103A60002369002B35D12146284600F099FD80B30B
:103A70004FF0FF35636EDA0705D4A3899B0502D4A6
:103A8000A06D00F08DF8284670BD002B04DAA26905
:103A90009A4217DC0A2915D023685A1C2260197033
:103AA000A36816F8011F013BA3600029EDD1002B8C
:103AB00011DA22460A21284600F033FD0130D7D022
:103AC0000A25D7E72246284600F02BFD0130E7D132
:103AD000CEE7013EE4E723685A1C22600A221A70EE
:103AE000EEE70000024B01461868FFF7A5BF00BFD4
:103AF0001800002002440346934200D1704703F8A7
:103B0000011BF9E738B5074D002304460846114666
:103B10002B60FEF754FB431C02D12B6803B12360DA
:103B200038BD00BF0405002038B5064D002304460B
:103B300008462B60FEF748FB431C02D12B6803B1FB
:103B4000236038BD04050020014B1868704700BF92
:103B50001800002070B50D4D0D4C641BA4100026FC
:103B6000A64209D10B4D0C4C01F0FEFA641BA410C7
:103B70000026A64205D170BD55F8043B9847013692
:103B8000EEE755F8043B98470136F2E7F855000890
:103B9000F8550008F8550008FC55000870477047B4
:103BA0007047000038B50546002941D051F8043C63
:103BB0000C1F002BB8BFE41800F064FC1D4A13680A
:103BC00033B9636014602846BDE8384000F060BC3B
:103BD000A34208D9206821188B4201BF19685B688D
:103BE00009182160EDE71A465B680BB1A342FAD9C8
:103BF00011685018A0420BD120680144501883422C
:103C00001160E0D118685B68536008441060DAE71F
:103C100002D90C232B60D6E7206821188B4204BF01
:103C200019685B68636004BF091821605460CAE7C3
:103C300038BD00BF000500209368013B002B10B485
:103C4000936008DA9469A34201DB0A2903D15DF885
:103C5000044B00F066BC1368581C106019700846CD
:103C60005DF8044B7047F8B506460F461446D51864
:103C7000AC4201D1002007E014F8011B3A4630465F
:103C8000FFF7DAFF431CF3D1F8BD00002DE9F04F38
:103C90000D469DB014469846064618B1036A0BB906
:103CA000FFF720FE6B6ED90705D4AB899A0502D4C5
:103CB000A86DFFF774FFAB891B0701D52B699BB972
:103CC0002946304600F06CFC70B16B6EDC0704D501
:103CD0004FF0FF301DB0BDE8F08FAB899805F7D4E9
:103CE000A86DFFF75DFFF3E70023099320238DF80C
:103CF0002930CDF80C803023DFF8AC818DF82A30E4
:103D00004FF0010923469A4613F8012B0AB1252AE0
:103D1000F9D1BAEB040B0BD05B462246294630465C
:103D2000FFF7A1FF013000F0A780099A5A440992D9
:103D30009AF80030002B00F09F8000234FF0FF32F4
:103D4000CDE905230AF1010A049307938DF8533056
:103D50001A935446052214F8011B5348FCF738FA0D
:103D6000049AD8B9D10644BF20238DF853301307E5
:103D700044BF2B238DF853309AF800302A2B15D0EE
:103D8000079A544600204FF00A0C214611F8013BD7
:103D9000303B092B4BD9B0B1079214E0A0EB0803DC
:103DA00009FA03F313430493A246D2E7039B191DB8
:103DB0001B680391002BBBBF5B4242F002020793DA
:103DC0000793B8BF049223782E2B0AD163782A2B4D
:103DD00032D1039B1A1D1B68039243EAE37302343A
:103DE0000593DFF8D4A0217803225046FCF7F0F9C0
:103DF00038B1049BA0EB0A004022824013430134F7
:103E0000049314F8011B29488DF828100622FCF7AA
:103E1000DFF900283FD0264B1BBB039B073323F061
:103E2000070308330393099B3B4409936AE70CFBA0
:103E300002320C460120A8E70023013405931946FD
:103E40004FF00A0C204610F8012B303A092A03D90A
:103E5000002BC6D00591C4E70CFB012104460123C9
:103E6000F0E703AB00932A46124B04A93046AFF3A8
:103E700000800746781CD6D16B6ED90705D4AB8974
:103E80009A0502D4A86DFFF78BFEAB895B063FF560
:103E90001FAF09981EE703AB00932A46054B04A900
:103EA000304600F023F9E4E7EA510008F451000835
:103EB00000000000673C0008F0510008024B01467A
:103EC000186800F025B800BF1800002070B50F4E2C
:103ED0000C463168054611B900F0ECFB3060214614
:103EE000284600F0E7FB431C03D14FF0FF34204687
:103EF00070BDC41C24F00304A042F8D0211A284647
:103F000000F0D8FB0130F2D1EFE700BFFC04002045
:103F10002DE9F843CD1C25F0030508350C2D38BFDD
:103F20000C25002D064601DBA94204D90C23336081
:103F30000020BDE8F883DFF8D48000F0A3FAD8F8B9
:103F400000301C4644BB29463046FFF7BFFF431CE8
:103F5000044658D1D8F800402746002F43D1002C02
:103F60004BD023683946304604EB030900F0A2FB2E
:103F7000814542D121686D1A29463046FFF7A6FFD8
:103F800001303AD023682B442360D8F800305A68B7
:103F900062BBC8F800700FE02268521B20D40B2AC5
:103FA00017D96119A342256018BF5960636808BF1B
:103FB000C8F8001062514B60304600F069FA04F115
:103FC0000B00231D20F00700C21A1CBF1B1AA350B0
:103FD000AFE76268A3420CBFC8F800205A60EBE765
:103FE00023466468AEE73C467F68B6E71A465B68DE
:103FF000A342FBD100235360DEE70C23336030463D
:1040000000F046FA94E70560D6E700BF00050020FF
:104010002DE9F047164698468A680B69DDF820902E
:104020009342B8BF1346336091F8432007460C46CD
:104030000AB1013333602368990642BF3368023303
:104040003360256815F0060506D104F1190AE36806
:1040500032689B1AAB4226DC94F843302268003B5E
:1040600018BF012392062BD404F14302414638467F
:10407000C84701301ED02368226903F00603042BD1
:1040800002BFE5683368ED1AA3680CBF25EAE57541
:1040900000259342C4BF9B1AED1800261A34B5427E
:1040A0001AD1002008E00123524641463846C8474D
:1040B000013003D14FF0FF30BDE8F0870135C6E78E
:1040C000E1185A1C302081F84300224494F845102E
:1040D00082F843100233C7E701232246414638469F
:1040E000C8470130E6D00136D9E700002DE9FF4787
:1040F0000F7E0C9E782F914680460C469A4601F121
:10410000430207D8622F0AD8002F00F0D280582F20
:1041100000F0B98004F1420684F842703AE0A7F159
:104120006303152BF6D801A151F823F0854100084F
:104130009941000815410008154100081541000883
:104140001541000899410008154100081541000873
:10415000154100081541000899420008C3410008B4
:10416000534200081541000815410008BB420008F1
:1041700015410008C3410008154100081541000819
:104180005B42000833681A1D1B68326004F1420666
:1041900084F8423001239DE033682068191D3160A6
:1041A000060601D51D6803E04506FBD5B3F90050AE
:1041B000002D03DA2D236D4284F8433059480A2339
:1041C00011E021683368080653F8045B02D44906FD
:1041D00048BFADB26F2F5348336014BF0A23082382
:1041E000002184F843106668A660002EA2BF2168F3
:1041F00021F0040121600DB9002E4BD01646B5FB0D
:10420000F3F103FB1157C75D06F8017D2F46BB4252
:104210000D46F4D9082B0BD12368DF0708D5236995
:1042200061689942DEBF302306F8013C06F1FF3693
:10423000921B2261CDF800A04B4603AA21464046BE
:10424000FFF7E6FE01304AD14FF0FF3004B0BDE881
:10425000F087236843F0200323603348782784F8ED
:104260004570236831681F0651F8045B02D45F066D
:1042700048BFADB23160D90744BF43F0200323608B
:104280001DB11023ACE72748E9E7236823F020039A
:104290002360F6E71646BDE7336825686169181D97
:1042A00030602E061B6801D5196002E06806FBD558
:1042B0001980002323611646BCE733681A1D32605B
:1042C0001E68626800213046FBF782FF08B1801B40
:1042D000606063682361002384F84330AAE72369A0
:1042E000324649464046D0470130ADD023689B074F
:1042F00013D4E068039B9842B8BF1846A6E7012391
:10430000324649464046D04701309DD00135E368EA
:1043100003995B1AAB42F2DCEBE7002504F11906C6
:10432000F5E700BFFB5100080C520008B1F90C2062
:104330002DE9F041160705460C4654D44B68002B76
:1043400002DC0B6C002B48DDE66A002E45D0002312
:1043500012F480522F68216A2B6030D0626DA389DD
:10436000590705D56368D21A636B0BB1236CD21A57
:104370000023E66A216A2846B047431CA38906D178
:1043800029681D292BD82A4A0A41D60727D400229A
:104390006260D9042269226004D5421C01D12B68D5
:1043A00003B96065616B2F60B9B104F144039942B0
:1043B00002D02846FFF7F6FB002363630DE00123DC
:1043C0002846B0470246501CC9D12B68002BC6D0E6
:1043D0001D2B01D0162B1ED12F60002022E043F0B0
:1043E00040031BB21BE00F69002FF6D093070E6845
:1043F00008BF4B690F6018BF0023A6EB07088B604E
:10440000B8F1000FE9DD216AA66A43463A4628461C
:10441000B047002808DCB4F90C3043F04003A38116
:104420004FF0FF30BDE8F0810744A8EB0008E7E754
:10443000FEFFBFDF38B50B6905460C4613B90025F2
:10444000284638BD18B1036A0BB9FFF74BFAB4F927
:104450000C30002BF3D0626ED00704D4990502D43F
:10446000A06DFFF79CFB28462146FFF75FFF636EB8
:10447000DA070546E4D4A3899B05E1D4A06DFFF7D4
:104480008FFBDDE70148FFF78ABB00BFF80400207F
:104490000148FFF785BB00BFF804002010B50C46AB
:1044A000B1F90E1000F0F4F80028ABBF636DA389DA
:1044B0001B1823F48053ACBF6365A38110BD2DE9A5
:1044C000F0411F468B89DB0505460C46164605D58F
:1044D000B1F90E100223002200F0C8F8A389B4F944
:1044E0000E1023F48053A38132463B462846BDE894
:1044F000F04100F0EFB810B50C46B1F90E1000F025
:10450000B5F8431CA38915BF606523F4805343F4B9
:104510008053A38118BFA38110BDB1F90E1000F024
:1045200095B8F8B50E461446054618B1036A0BB99E
:10453000FFF7D8F9A369A360A3891A0701D52369F6
:1045400043B92146284600F02BF818B14FF0FF3749
:104550003846F8BD23682269981A6369F6B2834227
:10456000374605DC21462846FFF764FF0028EDD1D9
:10457000A368013BA36023685A1C22601E70626915
:10458000431C9A4204D0A389DB07E1D50A2EDFD170
:1045900021462846FFF74EFF0028D9D0D6E7000075
:1045A00038B5294B054618680C4618B1036A0BB993
:1045B000FFF798F9B4F90C30190722D4DA0607D4BA
:1045C00009222A6043F04003A3814FF0FF3033E01B
:1045D000580712D5616B41B104F14403994202D0EE
:1045E0002846FFF7DFFA00236363A38923F024033F
:1045F000A3810023636023692360A38943F0080338
:10460000A38123694BB9A38903F42073B3F5007F19
:1046100003D021462846FFF7C1F9B4F90C3013F056
:1046200001020AD00022A26062695242A26122699C
:1046300042B913F08000C5D138BD990758BF6269EF
:10464000A260F4E70020F7E71800002038B5064D17
:104650000023044608462B60FDF7AEFD431C02D143
:104660002B6803B1236038BD0405002038B5074D21
:1046700004460846114600222A601A46FDF7A6FDA8
:10468000431C02D12B6803B1236038BD0405002010
:1046900038B5074D04460846114600222A601A46DE
:1046A000FDF77AFD431C02D12B6803B1236038BDAE
:1046B0000405002038B5064D0023044608462B604B
:1046C000FDF746FD431C02D12B6803B1236038BDC2
:1046D0000405002038B5074D04460846114600225F
:1046E0002A601A46FBF7C4FD431C02D12B6803B1B4
:1046F000236038BD0405002010EE103A07B51E4AAD
:1047000023F00043934206D8DFED1C0A03B05DF8A6
:1047100004EB00F035B8B3F1FF4F04D330EE400A9C
:1047200003B05DF804FB684600F0CAF800F003002F
:10473000012809D0022810D0B0B9DDED010A9DEDA5
:10474000000A00F01DF8EBE7DDED010A9DED000A1F
:1047500000F06EF8B1EE400AE2E7DDED010A9DEDF2
:10476000000A00F00DF8F5E7DDED010A9DED000A05
:10477000012000F05DF8D3E7D80F493F00000000AA
:1047800010EE103A23F00043B3F1485FF0EE406AB8
:10479000B7EE000A04D2FDEEE67A17EE902A42B395
:1047A00026EEA67ADFED1A7A9FED1A6A1A4AA7EE6C
:1047B000276A9342DFED197AE6EE077A9FED186AD1
:1047C000A7EE876ADFED177AE6EE077A9FED166AA5
:1047D000A7EE876A60EEE60A26EE076AF6EE007A32
:1047E000E7EE060A67EE277A04D877EEE07A30EE35
:1047F000670A70470D4A93429ABF03F17F4307EE61
:10480000103AB5EE027A30EE470A77EEC77AECE757
:104810004ED747ADF6740F319999993E7CF293B417
:10482000010DD037610BB6BAABAA2A3D0000483F54
:1048300010EE103A23F00043B3F1485F04D2FDEECE
:10484000C07A17EE903A5BB320EE007ADFED157A6E
:104850009FED156AA7EE276ADFED147AE6EE077A78
:104860009FED136AA7EE876ADFED127A60EE076AA2
:10487000E6EE077A30B99FED106AA7EE276AA6EE3A
:10488000260A704767EEE67AB6EE006AE0EE867AB0
:10489000D7EE870ADFED097AE6EEA70A30EE600A66
:1048A000704700BFD3C92E2F342FD7B21BEF383635
:1048B000010D50B98988083CABAA2ABEABAA2A3E92
:1048C000F0B510EE106A884B26F000459D4287B087
:1048D000044605D8002380ED000A4360002022E052
:1048E000824B9D423AD826F00043002E9FED807AFD
:1048F000804A23F00F0318DD934270EE477A09BF18
:104900009FED7D7ADFED7D6ADFED7D6A77EEC77A18
:1049100037EEE67A77EEC77A80ED007A77EEE67AC0
:10492000C0ED017A012007B0F0BD934270EE077A26
:1049300009BF9FED717ADFED716ADFED716A77EE85
:10494000877A37EEA67A77EEC77A80ED007A77EE2F
:10495000A67AC0ED017A4FF0FF30E4E7694B9D4243
:1049600073D800F0DDF89FED687AF6EE007AE0EE9D
:10497000077AFDEEE77AB8EEE77A17EE900ADFEDF8
:104980005C7AA7EE670A1F28DFED5C7A67EE277A6C
:10499000B1EE476A70EE676A16EE901A09DC5B4A60
:1049A000471E26F0004352F8272023F0FF039342CE
:1049B00007D1C1F3C752C2EBD552082A4FEAE553DB
:1049C00014DC216094ED007A30EE470A002E30EEC0
:1049D000670A84ED010AA6DAB1EE477AB1EE400A21
:1049E00084ED007A84ED010A40429CE7DFED425AF3
:1049F000F0EE406AE6EE256A70EE667AE6EE257A1B
:104A0000DFED3F5AD7EE257A76EEE75A15EE902A7B
:104A1000C2F3C7515B1A192B04DCC4ED005AB0EE87
:104A2000660ACFE7DFED3A5AB0EE660AA6EE250A2F
:104A300076EEC07ADFED376AE6EE257AD7EE267A93
:104A400030EE677A84ED007ABCE7B5F1FF4F06D30C
:104A500070EE407AC0ED017AC0ED007A3EE7EA15CB
:104A6000863AA5EBC25307EE903ABDEEE77ADFED4A
:104A70002A6AB8EEC77A77EEC77A8DED037A67EEC9
:104A8000A67ABDEEE77AB8EEC77A77EEC77A8DEDF3
:104A9000047A67EEA67AF5EE407AF1EE10FACDEDE3
:104AA000057A1ED1B5EE407AF1EE10FA0CBF012363
:104AB00002231A4901910221009103A8214600F026
:104AC00037F8002EBFF62FAFD4ED007AF1EE677AFB
:104AD000C4ED007AD4ED017AF1EE677AC4ED017A83
:104AE00082E70323E5E700BFD80F493FE3CB164039
:104AF000800FC93FD00FC93F004435374344353795
:104B000008A3852E800F494384F9223F20520008D4
:104B100000A3852E32318D2400008043A05200086E
:104B200010EE103A23F0004300EE103A70470000F8
:104B30002DE9F04F2DED048BD9B090460190B94A84
:104B4000669818F1040F52F820A00F4603F1FF3BBE
:104B500027DBB8F1030248BF08F10402D210551C4C
:104B600067999FEDB47AE800A2EB0B060290A8EBE0
:104B7000C5050AEB0B0C1CAC01EB860E0020604552
:104B800011DD1CA901EB83000DF588794FF0000CB5
:104B9000D44527DCDDF804E0DFEDA67A06460024E4
:104BA00016E00022DBE7C6425DBF5EF8201007EE8C
:104BB000901AF8EEE77AF0EE477AE4EC017A0130E9
:104BC000DDE7FEEC016A96ED007AE6EE877A0134C5
:104BD0005C45A6F10406F4DDE9EC017A0CF1010C68
:104BE0000430D5E708A901EB8A0104916799DFED4C
:104BF000908A9FED8E9A01EB820203925446A200A6
:104C0000059258AA02EB840212ED140A44A908AADC
:104C100001EB840094462646002EA0F104004CDCF3
:104C20002846CDE9062300F039FAB0EE408AB4EE0A
:104C3000000A28EE000A00F0EDF9F2EE007AA0EE8C
:104C4000678A002DDDE90623FDEEC87A17EE909AFB
:104C5000F8EEE77A38EE678A41DD04F1FF3C08A9F7
:104C6000C5F1080E51F82C6046FA0EF0814400FAA6
:104C70000EF0361AC5F1070041F82C600641002EEF
:104C80003CDD4FF0000E09F101097046744568DC07
:104C9000002D03DD012D74D0022D7DD0022E2DD1EB
:104CA000B7EE000A30EE488A40B32846069300F07B
:104CB000F5F9069B38EE408A20E060EE287A013E46
:104CC000FDEEE77AF8EEE77AA7EEC90ABDEEC00A74
:104CD000ACEC010A90ED000A37EE800A9CE705D1A2
:104CE000601E08A951F82060F611C8E7F6EE007AB8
:104CF000B4EEE78AF1EE10FA31DA0026B5EE408A1A
:104D0000F1EE10FA40F09880601E002250454BDA18
:104D1000002A65D0013C08AB083D53F82430002B35
:104D2000F8D02846B7EE000A00F0B8F9631C44AA90
:104D30009FED3F7A990002EB83022346002B80F21D
:104D4000A9802346002BC0F2C78044AA02EB83054A
:104D5000DFF8D4C0DFED377A0020E21AB1E0022696
:104D60008FE752F8041B48B921B1C1F5807142F8B0
:104D7000041C01210EF1010E084687E7C1F1FF0175
:104D8000F5E704F1FF3C08AA52F82C2002F07F025C
:104D900008A941F82C2081E704F1FF3C08AA52F849
:104DA0002C2002F03F02F3E708A951F82010013847
:104DB0000A43ABE7013250F8046D002EFAD0059992
:104DC00001F5B0710DEB0100E6181CA904F1010C0E
:104DD0004C3801EB86062244624504DA14460EE79D
:104DE00004980122E7E70399DDF804E051F82C105C
:104DF000059107EE901AF8EEE77A0024E6EC017AC6
:104E0000DFED0C7AB1465C4504DDE0EC017A0CF193
:104E1000010CE1E7FEEC016A39ED017A0134E6EEBE
:104E2000877AF0E7E4550008B85500080000804391
:104E30000000803B00000000029BB0EE480AA3EB9C
:104E4000080000F02BF91FED077AB4EEC70AF1EE67
:104E500010FA19DB5FED0A7A60EE277A08AAFDEEF8
:104E6000E77A0835F8EEE77AA7EEC70AFDEEE77AAB
:104E7000BDEEC00A10EE103A42F8243017EE903A18
:104E8000013442F824304CE7BDEEC00A08AA10EE07
:104E9000103AF6E708A850F82300019007EE900AB0
:104EA000F8EEE77A013B67EE807A20EE070A62EDC2
:104EB000017A43E7FCEC016AB5EC017AE6EE877A09
:104EC0000130504501DC8242F4DA58A800EB82023E
:104ED00042ED287A013B35E7669B022B09DC002B6B
:104EE0002BDC44D009F0070059B0BDEC048BBDE8C1
:104EF000F08F669B032BF5D130AA0B1F13441A4683
:104F000020460028A2F1040252DC2246012AA3F125
:104F100004035DDC30AB5FED397A0B44012C67DCB8
:104F2000DDED306A9DED317A002E67D1C7ED006A64
:104F300087ED017AC7ED027AD4E730AB1FED437AF3
:104F40000B442246002A24DA4EB3F1EE477AC7ED2D
:104F5000007ADDED307A77EEC77A31AA01239C42E0
:104F600020DA0EB1F1EE677AC7ED017ABAE730AB1D
:104F70005FED507A0B44002C05DA0EB1F1EE677A42
:104F8000C7ED007AAEE733ED017A013C77EE877A20
:104F9000F1E773ED017A013A37EE277AD2E7F0EEC6
:104FA000477AD4E7B2EC017A013377EE877AD6E715
:104FB000D2ED007AD2ED016A37EEA67A013877EEAB
:104FC000C77A82ED007A77EEA67AC2ED017A98E789
:104FD000D3ED007AD3ED016A37EEA67A013A77EE87
:104FE000C77A83ED007A77EEA67AC3ED017A8DE772
:104FF00033ED017A013C77EE877A8FE7F1EE666A4E
:10500000B1EE477AC7ED006A87ED017AF1EE677A73
:1050100090E700BF10EE103AC3F3C7527F3A162A4A
:1050200023F000412BDC002A12DADFED197A30EE92
:10503000270AB5EEC00AF1EE10FA06DD002B24DADD
:105040000029144B08BF4FF0004300EE103A7047A0
:10505000114911410B42FAD0DFED0D7A30EE270AEB
:10506000B5EEC00AF1EE10FAEFDD002BBEBF4FF433
:10507000000040FA02F29B1823EA0103E5E7B1F1D0
:10508000FF4FE4D330EE000A70470023DDE700BF96
:10509000CAF24971000080BFFFFF7F0010EE103A96
:1050A00033F000422BD0B2F1FF4F02D330EE000AB2
:1050B000704713F0FF4F23D1244BDFED257A984240
:1050C00020EE270A17DB10EE103AC3F3C752193A45
:1050D0004CF25031884215DDDFED1E7ADFED1E6A9D
:1050E00010EE103AB0EE677A002BB8BFF0EE667A99
:1050F00027EE870A7047DFED197A27EE800A70479E
:10510000D20DE5E71044FE28E6DC002806DD23F09A
:10511000FF4343EAC05300EE103A704710F1160FF8
:1051200009DADFED0E7ADFED0E6A10EE103AB0EE1E
:10513000677A002BD9E7193023F0FF4343EAC053C5
:105140009FED080A07EE903AD7E700BFB03CFFFF9B
:105150000000004CCAF24971CAF249F16042A20D46
:105160006042A28D00000033F8B500BFF8BC08BC57
:105170009E467047F8B500BFF8BC08BC9E46704715
:105180000102030405060708090A0B0C0D0E0F1097
:1051900002030405060708090A0B0C0D0E0F101078
:1051A00000000000010203040000000000000000F5
:1051B000010203040607080948656C6C6F20576FED
:1051C000726C640053797374656D436F7265436CE0
:1051D0006F636B203D20256C640A00004144435FEF
:1051E000444D4120737461727400232D302B2000D4
:1051F000686C4C0065666745464700303132333491
:105200003536373839414243444546003031323330
:1052100034353637383961626364656600000000F2
:10522000000FC93F000F494000CB9640000FC94016
:105230000053FB4000CB164100ED2F41000F4941C8
:105240000031624100537B41003A8A4100CB9641D4
:10525000005CA34100EDAF41007EBC41000FC9419D
:1052600000A0D5410031E24100C2EE410053FB41B4
:1052700000F20342003A0A420083104200CB164279
:1052800000141D42005C234200A5294200ED2F427C
:1052900000363642007E3C4200C74242000F49427F
:1052A000A2000000F9000000830000006E00000072
:1052B0004E0000004400000015000000290000001E
:1052C000FC0000002700000057000000D100000093
:1052D000F500000034000000DD000000C000000008
:1052E000DB00000062000000950000009900000053
:1052F0003C0000004300000090000000410000005E
:10530000FE0000005100000063000000AB00000040
:10531000DE000000BB000000C500000061000000CE
:10532000B7000000240000006E0000003A000000FA
:10533000420000004D000000D2000000E00000002C
:1053400006000000490000002E000000EA000000F6
:1053500009000000D1000000920000001C000000C5
:10536000FE0000001D000000EB0000001C0000001B
:10537000B100000029000000A70000003E0000006E
:10538000E80000008200000035000000F500000089
:105390002E000000BB00000044000000840000005C
:1053A000E90000009C0000007000000026000000E2
:1053B000B40000005F0000007E000000410000001B
:1053C0003900000091000000D60000003900000004
:1053D000830000005300000039000000F4000000CA
:1053E0009C000000840000005F0000008B000000B3
:1053F000BD000000F9000000280000003B00000094
:105400001F000000F800000097000000FF000000EF
:10541000DE00000005000000980000000F00000002
:10542000EF0000002F000000110000008B000000C2
:105430005A0000000A0000006D0000001F0000007C
:105440006D000000360000007E000000CF0000006C
:1054500027000000CB00000009000000B70000009A
:105460004F000000460000003F0000006600000002
:105470009E0000005F000000EA0000002D00000018
:105480007500000027000000BA000000C7000000FF
:10549000EB000000E5000000F10000007B000000D0
:1054A0003D0000000700000039000000F700000088
:1054B0008A0000005200000092000000EA00000094
:1054C0006B000000FB0000005F000000B100000066
:1054D0001F0000008D0000005D00000008000000BB
:1054E00056000000030000003000000046000000ED
:1054F000FC0000007B0000006B000000AB0000001F
:10550000F0000000CF000000BC0000002000000000
:105510009A000000F4000000360000001D000000AA
:10552000A9000000E30000009100000061000000FD
:105530005E000000E60000001B0000000800000004
:105540006500000099000000850000005F00000079
:1055500014000000A00000006800000040000000EF
:105560008D000000FF000000D80000008000000057
:105570004D00000073000000270000003100000013
:1055800006000000060000001500000056000000A4
:10559000CA00000073000000A8000000C90000005D
:1055A00060000000E20000007B000000C00000007E
:1055B0008C0000006B0000000000C93F0000F039C3
:1055C0000000DA370000A2330000842E0000502BC8
:1055D0000000C2270000D0220000C41F0000C61B2C
:1055E000000044170400000007000000090000004C
:0855F000E0ABFF7F01000000A9
:0455F800B5010008F1
:0455FC009101000811
:10560000010000001000000000127A0000000000FD
:1056100003000000BC0300201C000020000000006C
:10562000BC030020240400208C04002000000000A3
:10563000000000000000000000000000000000006A
:10564000000000000000000000000000000000005A
:10565000000000000000000000000000000000004A
:08566000000000000000000042
:0400000508003601B8
:00000001FF
