:020000040800F2
:1000000000300020A52F0008BD060008BF0600082C
:10001000C1060008C3060008C5060008000000006D
:10002000000000000000000000000000C7060008FB
:10003000C906000800000000CB060008CD06000835
:10004000F52F0008F52F0008F52F0008F52F000800
:10005000F52F0008F52F0008F52F0008F52F0008F0
:10006000F52F0008F52F0008F52F0008F52F0008E0
:10007000F52F0008F52F0008F52F0008F52F0008D0
:10008000F52F0008F52F0008F52F0008F52F0008C0
:10009000F52F0008F52F0008F52F0008F52F0008B0
:1000A000F52F0008F52F0008F52F0008F52F0008A0
:1000B000F52F0008F52F000800000000F52F0008BC
:1000C000F52F00080000000000000000F52F0008D8
:1000D00000000000F52F0008F52F0008F52F00089C
:1000E000F52F0008F52F00080000000000000000B8
:1000F0000000000000000000000000000000000000
:1001000000000000000000000000000000000000EF
:100110000000000000000000F52F0008F52F000887
:1001200000000000000000000000000000000000CF
:1001300000000000000000000000000000000000BF
:10014000F52F0008F52F0008000000000000000057
:10015000000000000000000000000000000000009F
:10016000000000000000000000000000000000008F
:10017000000000000000000000000000000000007F
:0801800000000000F52F00084B
:1001880010B5054C237833B9044B13B10448AFF3C9
:1001980000800123237010BD0C0000200000000027
:1001A8005030000808B5034B1BB103490348AFF3AF
:1001B800008008BD0000000010000020503000083A
:1001C80072B6FEE700B597B0282200210CA802F00D
:1001D8000EFF00230793089309930A930B93019347
:1001E8000293039304930593069302230C9301222D
:1001F80010921022119213934FF4501315930CA8D8
:1002080000F0DCFFE8B90F2307930223089380234B
:10021800099300230A930B93012107A801F010FB0F
:1002280088B941F281030193002303934FF480724C
:100238000592069301A801F009FC30B917B05DF8E2
:1002480004FBFFF7BDFFFFF7BBFFFFF7B9FF08B5DA
:1002580000F090FFFFF7B6FF00F011F800F004F986
:1002680001F076FE01F090FE01F008FE00F08EF934
:1002780000F0D6F902F054FC02F08EFCFEE700B55F
:1002880089B000230393049305930693079303F11E
:10029800804303F504335A6942F480025A615A696B
:1002A80002F480020092009A5A6942F400325A61BC
:1002B8005A6902F400320192019A5A6942F4802282
:1002C8005A615B6903F480230293029B0123039321
:1002D80003A94FF0904001F07FFC09B05DF804FBE2
:1002E8000268094B9A4200D0704782B003F5644314
:1002F8009A6942F400629A619B6903F4006301936E
:10030800019B02B0704700BF002C014082B0036817
:10031800B3F1804F04D00E4A93420DD002B070471B
:1003280003F50433DA6942F00102DA61DB6903F0AC
:1003380001030093009BF1E7064BDA6942F00202E1
:10034800DA61DB6903F002030193019BE6E700BF72
:10035800000400400010024030B58BB00023059324
:10036800069307930893099303683B4A934207D07F
:10037800B3F1804F2FD0394A934258D00BB030BDDB
:10038800374B5A6942F400325A615A6902F4003212
:100398000092009A5A6942F480225A615B6903F418
:1003A80080230193019B4FF4F06305930225069582
:1003B8000624099405A94FF0904001F00DFC032391
:1003C80005930695002307930893099405A92548E2
:1003D80001F002FCD2E703F504335A6942F4003213
:1003E8005A615A6902F400320292029A5A6942F436
:1003F80080225A615B6903F480230393039B4FF4C3
:1004080000430593022506950124099405A94FF098
:10041800904001F0E1FB082305930695002307931C
:100428000893099405A90F4801F0D6FBA6E70C4BE1
:100438005A6942F480225A615B6903F48023049369
:10044800049B3023059302230693099305A90548C5
:1004580001F0C2FB92E700BF002C014000040040FD
:10046800001002400004004810B59AB00024169409
:100478001794189419941394149415940C940D9437
:100488000E940F941094119412942C22214601A8D2
:1004980002F0ADFD3B483C4B0360012343608460A0
:1004A80040F22B13C36004614461846100F0BEFA1A
:1004B80000284ED14FF48053169316A9314800F006
:1004C800FDFB002848D12F4800F0E0FA002846D16B
:1004D800002313931493159313A92A4800F0A4FD3D
:1004E80000283FD160230C9300220D920E920F92A8
:1004F8001092119212920CA9224800F035FB0028A4
:1005080033D104220CA91F4800F02EFB00282FD15C
:1005180008220CA91B4800F027FB60BB00230193AD
:10052800029303930A22049205934FF40052069211
:10053800079308934FF0007209920A930B9301A94D
:10054800104800F0ADFDC8B90E48FFF705FF1AB016
:1005580010BDFFF735FEADE7FFF732FEB3E7FFF753
:100568002FFEB5E7FFF72CFEBCE7FFF729FEC8E72B
:10057800FFF726FECCE7FFF723FECFE7FFF720FEC5
:10058800E2E700BFC0000020002C014000B58BB09E
:10059800002307930893099300930193029303930D
:1005A8000493059306931D484FF080420260092288
:1005B8004260836040F6B732C2600361836100F035
:1005C80065FAF0B900230793099307A9134800F0C7
:1005D8002BFDC8B960230093002201920292049275
:1005E80069460E4800F0C0FA88B9042269460B48EB
:1005F80000F0BAFA70B90948FFF7AEFE0BB05DF823
:1006080004FBFFF7DDFDDDE7FFF7DAFDE2E7FFF7C3
:10061800D7FDEAE7FFF7D4FDEDE700BF740000203F
:1006280000B58BB0002307930893099300930193B7
:10063800029303930493059306931C481C4A026093
:1006480009224260836040F6B732C2600361836169
:1006580000F01CFAF0B900230793099307A913487F
:1006680000F0E2FCC8B960230093002201920292D4
:10067800049269460D4800F077FA88B90422694661
:100688000A4800F071FA70B90848FFF765FE0BB028
:100698005DF804FBFFF794FDDDE7FFF791FDE2E766
:1006A800FFF78EFDEAE7FFF78BFDEDE72800002056
:1006B80000040040FEE7FEE7FEE7FEE7FEE77047BE
:1006C8007047704708B500F067FD08BD82B00A4B57
:1006D8009A6942F001029A619A6902F00102009255
:1006E800009ADA6942F08052DA61DB6903F08053DC
:1006F8000193019B02B070470010024030B4026AB7
:10070800036A23F0010303624468836923F4803396
:1007180023F073030D681D4322F002028B68134314
:10072800184A90420BD002F5A052904207D002F529
:100738008062904203D002F58062904205D123F096
:100748000803CA681A4322F004030E4A90420BD0E9
:1007580002F5A052904207D002F58062904203D081
:1007680002F58062904205D124F440744A6922431C
:100778008C691443446085614A684263036230BCF3
:10078800704700BF002C014030B4036A026A22F4AB
:10079800807202624268C46924F4803C2CF0730CB5
:1007A8000C6844EA0C0523F400738C6843EA0423BC
:1007B800124CA0420BD0124CA0420FD004F580641A
:1007C800A0420BD004F58064A0420FD106E023F4C8
:1007D8000063CC6843EA042323F4806322F4405284
:1007E8004C6942EA04128C6942EA04124260C5610B
:1007F8004A68C263036230BC704700BF002C0140E6
:100808000040014030B4026A036A23F48053036253
:100818004468C36923F0807323F4E6430D6843EA10
:10082800052322F400528D6842EA05320D4DA84294
:100838000BD005F5A055A84207D005F58065A8425C
:1008480003D005F58065A84204D124F480444D699D
:1008580044EA85144460C3614B680364026230BC97
:10086800704700BF002C014030B4036A026A22F4CA
:10087800803202624468426D22F4803222F07002B3
:100888000D682A4323F400338D6843EA05430D4D70
:10089800A8420BD005F5A055A84207D005F58065FC
:1008A800A84203D005F58065A84204D124F4803419
:1008B8004D6944EA0524446042654A6882650362DA
:1008C80030BC7047002C014030B4026A036A23F43C
:1008D800801303624468436D23F0807323F4E0437C
:1008E8000D6843EA052322F400128D6842EA055296
:1008F8000D4DA8420BD005F5A055A84207D005F527
:100908008065A84203D005F58065A84204D124F487
:1009180080244D6944EA8524446043654B68C36577
:10092800026230BC704700BF002C014010B4036A5B
:10093800046A24F001040462846924F0F00C4CEA8F
:10094800021223F00A030B43826103625DF8044B31
:10095800704710B4036A046A24F0100404628469BE
:1009680024F4704C4CEA023223F0A00343EA01134A
:10097800826103625DF8044B7047836823F070035B
:100988000B4343F007038360704700000368264A5F
:10099800904206D0B0F1804F03D0A2F59432904235
:1009A80003D123F070034A6813431F4A904212D0C0
:1009B800B0F1804F0FD0A2F5943290420BD002F5DF
:1009C8009E32904207D002F58062904203D002F531
:1009D8008062904203D123F44073CA68134323F022
:1009E80080034A69134303608B68C3620B688362A0
:1009F8000D4B98420BD003F5A053984207D003F54E
:100A08008063984203D003F58063984201D10B6953
:100A1800036301234361036913F0010F03D00369E2
:100A280023F0010303617047002C014060B310B547
:100A3800044690F83D3013B3022384F83D30214634
:100A480051F8040BFFF7A2FF012384F8483084F81B
:100A58003E3084F83F3084F8403084F8413084F8E0
:100A6800423084F8433084F8443084F8453084F8C0
:100A7800463084F8473084F83D30002010BD80F8B7
:100A88003C30FFF72DFCD7E70120704760B310B565
:100A9800044690F83D3013B3022384F83D302146D4
:100AA80051F8040BFFF772FF012384F8483084F8EB
:100AB8003E3084F83F3084F8403084F8413084F880
:100AC800423084F8433084F8443084F8453084F860
:100AD800463084F8473084F83D30002010BD80F857
:100AE8003C30FFF713FCD7E70120704730B4036AA6
:100AF800026A22F0100202624268846924F0807C53
:100B08002CF4E64C0C684CEA042423F020038D688E
:100B180043EA0513124DA8420BD0124DA8420FD03C
:100B280005F58065A8420BD005F58065A8420FD170
:100B380006E023F08003CD6843EA051323F0400361
:100B480022F440624D6942EA85028D6942EA8502D3
:100B5800426084614A688263036230BC704700BFA8
:100B6800002C01400040014038B590F83C30012B82
:100B780000F0958004460D46012380F83C30142A85
:100B880000F28880DFE802F00B8686861F8686865C
:100B980034868686488686865D86868671000068E5
:100BA800FFF7ACFD2268936943F00803936122685C
:100BB800936923F0040393612268936929690B43BD
:100BC8009361002067E00068FFF790FF226893694F
:100BD80043F4006393612268936923F4806393610B
:100BE80022689369296943EA01239361002052E04E
:100BF8000068FFF7C9FD2268D36943F00803D36191
:100C08002268D36923F00403D3612268D369296970
:100C18000B43D36100203EE00068FFF7F3FD226834
:100C2800D36943F40063D3612268D36923F48063F2
:100C3800D3612268D369296943EA0123D36100207B
:100C480029E00068FFF710FE2268536D43F008039F
:100C580053652268536D23F0040353652268536D6E
:100C680029690B435365002015E00068FFF72CFE47
:100C78002268536D43F4006353652268536D23F46F
:100C8800806353652268536D296943EA01235365DC
:100C9800002000E00120002384F83C3038BD022009
:100CA800FCE710B4846824F47F4C42EA03220A4328
:100CB80042EA0C0282605DF8044B704790F83C30C1
:100CC800012B76D010B50446012380F83C3002236E
:100CD80080F83D3002689068374B034093600B689A
:100CE800602B4CD029D8402B54D00CD9502B22D172
:100CF800CA6849682068FFF719FE50212068FFF785
:100D08003CFE002005E0202B0DD009D9302B0AD05D
:100D18000120012384F83D30002384F83C3010BDC5
:100D28000BB1102B05D119462068FFF726FE0020CD
:100D3800EFE70120EDE70120EBE7B3F5805F34D062
:100D4800B3F5005F0CD1CB684A6889682068FFF763
:100D5800A8FF2268936843F4804393600020D8E793
:100D6800702B24D1CB684A6889682068FFF799FFFF
:100D78002268936843F0770393600020C9E7CA6844
:100D880049682068FFF7E5FD60212068FFF7F5FD59
:100D98000020BEE7CA6849682068FFF7C7FD402100
:100DA8002068FFF7EAFD0020B3E70020B1E7012043
:100DB800AFE70220704700BF8800FEFF01F01F0167
:100DC8004FF0010C0CFA01FC036A23EA0C030362DE
:100DD800036A8A40134303627047000010B5044653
:100DE80010293CD8DFE801F0093B3B3B1F3B3B3B6C
:100DF800263B3B3B2D3B3B3B340090F83E30DBB27F
:100E0800013B18BF0123002B40F0828010296DD8C8
:100E1800DFE801F02C6C6C6C5C6C6C6C606C6C6C5E
:100E2800646C6C6C680090F83F30DBB2013B18BF13
:100E38000123E8E790F84030DBB2013B18BF0123FB
:100E4800E1E790F84130DBB2013B18BF0123DAE754
:100E580090F84230DBB2013B18BF0123D3E790F88A
:100E68004330DBB2013B18BF0123CCE7022384F8EF
:100E78003E3001222068FFF7A1FF2368274A9342EA
:100E88000BD002F5A052934207D002F5806293423C
:100E980003D002F58062934203D15A6C42F40042B7
:100EA8005A6423681D4A934224D0B3F1804F21D05D
:100EB800A2F5943293421DD002F59E32934219D086
:100EC8001A6842F001021A60002022E0022384F826
:100ED8003F30CEE7022384F84030CAE7022384F883
:100EE8004130C6E7022384F84230C2E7022384F87F
:100EF8004330BEE799680A4A0A40062A0AD0B2F582
:100F0800803F09D01A6842F001021A60002000E010
:100F1800012010BD0020FCE70020FAE7002C01406A
:100F28000700010001F00F014FF0040C0CFA01FC5E
:100F3800036A23EA0C030362036A8A4013430362C9
:100F48007047000010B50446084659BB94F8443071
:100F5800DBB2013B18BF0123002B5AD100283AD13C
:100F6800022384F84430042201462068FFF7DAFFA0
:100F78002268536C43F4004353642368284A93421D
:100F880039D0B3F1804F36D0A2F59432934232D0A3
:100F980002F59E3293422ED01A6842F001021A607E
:100FA800002037E0042908D008290DD094F84730EC
:100FB800DBB2013B18BF0123CEE794F84530DBB222
:100FC800013B18BF0123C7E794F84630DBB2013B69
:100FD80018BF0123C0E7042805D0082807D002233A
:100FE80084F84730BFE7022384F84530BBE7022383
:100FF80084F84630B7E799680A4A0A40062A0AD0B0
:10100800B2F5803F09D01A6842F001021A60002048
:1010180000E0012010BD0020FCE70020FAE700BF37
:10102800002C01400700010090F83C20012A33D031
:1010380030B40346012280F83C20022280F83D208B
:10104800006842688468154DA84220D022F07002DA
:101058000D682A4342601A68104882420AD0B2F1E9
:10106800804F07D0A0F59430824203D000F59E301F
:10107800824204D124F080048968214391600122CE
:1010880083F83D20002083F83C0030BC704722F4F0
:1010980070024D682A43D9E702207047002C0140AE
:1010A80090F83C30012B3BD010B40246012380F865
:1010B8003C30CB6823F440738868034323F480638F
:1010C8004868034323F400630868034323F4805308
:1010D8000869034323F400534869034323F4804316
:1010E800886A034323F47023886943EA004310683D
:1010F8000C4CA04206D04364002082F83C005DF806
:10110800044B704723F470034C6A43EA045323F0FA
:101118008073CC69234323F00073096A0B43EAE721
:1011280002207047002C014010B504460E4B1A7877
:101138004FF47A73B3FBF2F30C4A1068B0FBF3F088
:1011480000F07EFE68B90F2C01D901200AE00022C8
:1011580021464FF0FF3000F063FE054B1C60002075
:1011680000E0012010BD00BF0000002008000020A2
:101178000400002008B5074A136843F01003136001
:10118800032000F03BFE0F20FFF7CEFFFFF79EFA8B
:10119800002008BD00200240034A1168034B1B7859
:1011A8000B441360704700BF0C01002000000020B2
:1011B800014B1868704700BF0C010020002800F0A0
:1011C800FF8270B582B00446036813F0010F3BD06C
:1011D800B44B5B6803F00C03042B1ED0B14B5B6867
:1011E80003F00C03082B13D06368B3F5803F68D075
:1011F800002B40F0928003F1804303F504331A6812
:1012080022F480321A601A6822F480221A605DE0A3
:10121800A44B5B6813F4803FE6D04FF4003393FA95
:10122800A3F3A04B19684FF4003393FAA3F3B3FA6E
:1012380083F303F01F03012202FA03F30B4203D0E6
:101248006368002B00F0BE82236813F0020F00F0E1
:10125800C480944B5B6813F00C0F00F09C80914B9A
:101268005B6803F00C03082B00F08F802369002BC8
:1012780000F0F080012292FAA2F3B3FA83F303F1AB
:10128800845303F584139B001A60FFF791FF05460A
:10129800022393FAA3F3834B1968022393FAA3F367
:1012A800B3FA83F303F01F03012202FA03F30B429C
:1012B80040F0C280FFF77CFF401B0228E8D90320DA
:1012C80089E2784A136843F480331360754AD36A15
:1012D80023F00F03A1680B43D3626368002B36D059
:1012E800FFF766FF05464FF4003393FAA3F36D4BFF
:1012F80019684FF4003393FAA3F3B3FA83F303F0B6
:101308001F03012202FA03F30B429DD1FFF750FF9E
:10131800401B6428E7D903205DE2B3F5A02F09D06C
:10132800604B1A6822F480321A601A6822F480220C
:101338001A60CBE703F18043A3F53C331A6842F403
:1013480080221A601A6842F480321A60BEE7FFF7FA
:101358002FFF05464FF4003393FAA3F3514B196856
:101368004FF4003393FAA3F3B3FA83F303F01F03A4
:10137800012202FA03F30B423FF466AFFFF718FFAE
:10138800401B6428E6D9032025E2464B5B6813F42A
:10139800803F7FF46BAF022393FAA3F3414B1968A4
:1013A800022393FAA3F3B3FA83F303F01F03012292
:1013B80002FA03F30B4203D02369934240F00482FC
:1013C8003848036823F0F8036169F82292FAA2F218
:1013D800B2FA82F291400B430360236813F0080FBE
:1013E80000F08C80A369002B60D0012191FAA1F252
:1013F800B2FA82F22C4B13449B001960FFF7D8FE17
:101408000546022393FAA3F293FAA3F293FAA3F2FE
:10141800244A516A93FAA3F3B3FA83F303F01F0340
:10142800012202FA03F30B4268D1FFF7C1FE401B09
:101438000228E6D90320CEE11A48036823F0F8030E
:101448006169F82292FAA2F2B2FA82F291400B4351
:101458000360C2E7012393FAA3F3B3FA83F303F11A
:10146800845303F584139B0000221A60FFF7A0FE43
:101478000546022393FAA3F30A4B1968022393FA49
:10148800A3F3B3FA83F303F01F03012202FA03F371
:101498000B42A2D0FFF78CFE401B0228E9D903209B
:1014A80099E100BF0010024020819010012292FAB9
:1014B800A2F2B2FA82F2B74B13449B0000221A60E0
:1014C800FFF776FE0546022393FAA3F293FAA3F2F6
:1014D80093FAA3F2B04A516A93FAA3F3B3FA83F3E7
:1014E80003F01F03012202FA03F30B4206D0FFF7B1
:1014F8005FFE401B0228E6D903206CE1236813F045
:10150800040F00F0A980A44BDB6913F0805F20D1A1
:10151800A14BDA6942F08052DA61DB6903F080534B
:101528000193019B01259D4B1B6813F4807F12D00A
:10153800E368012B23D073BB03F1804303F5043325
:101548001A6A22F001021A621A6A22F004021A6266
:101558001AE00025E7E7914A136843F480731360A3
:10156800FFF726FE06468D4B1B6813F4807FDFD1FC
:10157800FFF71EFE801B6428F5D903202BE1864A5D
:10158800136A43F001031362E368002B3CD0FFF7B2
:101598000FFE06462EE0052B09D07F4B1A6A22F073
:1015A80001021A621A6A22F004021A62ECE77A4B04
:1015B8001A6A42F004021A621A6A42F001021A62B6
:1015C800E2E7022393FAA3F3734B596A022393FACF
:1015D800A3F3B3FA83F303F01F03012202FA03F320
:1015E800194238D1FFF7E4FD801B41F28833984255
:1015F80000F2EC80022393FAA3F293FAA3F3002BF0
:10160800DFD0654B196AE1E7FFF7D2FD064618E01F
:10161800022393FAA3F3604B596A022393FAA3F3C4
:10162800B3FA83F303F01F03012202FA03F319420A
:1016380011D0FFF7BDFD801B41F28833984200F2BC
:10164800C780022393FAA3F293FAA3F3002BDFD007
:10165800514B196AE1E7B5BBE369002B00F0BA808A
:101668004D4A526802F00C02082A00F09980022BB9
:101678002FD04FF0807393FAA3F3B3FA83F303F1F7
:10168800845303F584139B0000221A60FFF790FD32
:1016980004464FF0007393FAA3F33F4B19684FF0D9
:1016A800007393FAA3F3B3FA83F303F01F03012241
:1016B80002FA03F319426BD0FFF77AFD001B0228E8
:1016C800E7D9032087E0344AD36923F08053D361F4
:1016D800C2E74FF0807393FAA3F3B3FA83F303F1ED
:1016E800845303F584139B0000221A60FFF760FD02
:1016F80005464FF0007393FAA3F3274B19684FF090
:10170800007393FAA3F3B3FA83F303F01F030122E0
:1017180002FA03F3194206D0FFF74AFD401B0228DC
:10172800E7D9032057E01C494B6823F47413626A15
:10173800206A024313434B604FF0807393FAA3F37C
:10174800B3FA83F303F1845303F584139B00012256
:101758001A60FFF72DFD04464FF0007393FAA3F3C8
:101768000D4B19684FF0007393FAA3F3B3FA83F3A0
:1017780003F01F03012202FA03F3194206D1FFF70F
:1017880017FD001B0228E7D9032024E0002022E0EF
:10179800002020E0208190100010024000700040DE
:1017A800012B1AD0104B5B6803F48031226A9142F6
:1017B80015D103F47013626A934212D100200AE033
:1017C80001207047012006E0012004E0032002E028
:1017D800032000E0002002B070BD0120FBE70120DB
:1017E800F9E70120F7E700BF001002400F4B5B68E4
:1017F80003F00C02082A01D00D487047C3F3834256
:101808000C49885C094AD26A02F00F020A498A5CCC
:1018180013F4803F05D0064BB3FBF2F303FB00F053
:101828007047064B03FB00F0704700BF00100240F2
:1018380000127A00783000086830000800093D007E
:10184800002800F0BE8070B50D460446614B1B6849
:1018580003F007038B420BD25E4A136823F0070399
:101868000B431360136803F007038B4240F0AB800F
:10187800236813F0020F06D0574A536823F0F00389
:10188800A1680B435360236813F0010F5AD06368B3
:10189800012B2DD0022B40D0022292FAA2F24E4AFE
:1018A8001068022292FAA2F2B2FA82F202F01F0241
:1018B800012101FA02F2104200F0878046494A6885
:1018C80022F0030213434B60FFF772FC0646424BBB
:1018D8005B6803F00C036268B3EB820F32D0FFF74A
:1018E80067FC801B41F288339842F0D9032067E0F7
:1018F8004FF4003292FAA2F2374A10684FF40032DD
:1019080092FAA2F2B2FA82F202F01F02012101FA5F
:1019180002F20242D2D1012052E04FF0007292FA54
:10192800A2F22D4A10684FF0007292FAA2F2B2FAAF
:1019380082F202F01F02012101FA02F21042BDD127
:1019480001203DE0234B1B6803F00703AB420AD993
:10195800204A136823F007032B431360136803F02E
:101968000703AB4233D1236813F0040F06D01A4A99
:10197800536823F4E063E1680B435360236813F072
:10198800080F07D0144A536823F46053216943EAC7
:10199800C1035360FFF72AFF0F4B5B6803F0F003A6
:1019A800F02292FAA2F2B2FA82F2D3400B4AD35C46
:1019B800D8400B4B18600B4B1868FFF7B5FB00209D
:1019C80070BD012070470120FAE70120F8E70120E7
:1019D800F6E700BF002002400010024090300008E7
:1019E8000800002004000020014B1868704700BF61
:1019F8000800002008B5FFF7F7FF074B5B6803F402
:101A0800E0634FF4E06292FAA2F2B2FA82F2D340B3
:101A1800024AD35CD84008BD001002408830000854
:101A280008B5FFF7E1FF074B5B6803F460534FF419
:101A3800605292FAA2F2B2FA82F2D340024AD35C1E
:101A4800D84008BD0010024088300008F0B583B0C7
:101A58000446036813F4803F44D05C4BDB6913F001
:101A6800805F6DD1594BDA6942F08052DA61DB69E7
:101A780003F080530193019B0125554B1B6813F418
:101A8800807F5FD0514B1B6A13F4407321D062688A
:101A980002F440729A421CD04C48016A21F4407604
:101AA8004FF4803393FAA3F2B2FA82F2494F3A44E0
:101AB80092004FF0010CC2F800C093FAA3F3B3FAF6
:101AC80083F33B449B0000221A60066211F0010F69
:101AD8004CD13E4A136A23F4407361680B43136286
:101AE800002D69D1236813F0010F06D0374A136B14
:101AF80023F00303A1680B431363236813F0200F3B
:101B080006D0324A136B23F01003E1680B431363CA
:101B1800236813F0800F06D02C4AD36A23F4F87395
:101B280021690B43D362236813F4805F4BD0274AA3
:101B3800136B23F4807361690B431363002043E044
:101B480000259AE7224A136843F480731360FFF76D
:101B58002FFB06461E4B1B6813F4807F92D1FFF7BC
:101B680027FB801B6428F5D903202DE0FFF720FB15
:101B7800064617E0022393FAA3F3144B596A02238B
:101B880093FAA3F3B3FA83F303F01F03012202FAD3
:101B980003F30B429DD1FFF70BFB801B41F2883307
:101BA80098420ED8022393FAA3F293FAA3F3002BD8
:101BB800E0D0064B196AE2E7D36923F08053D3617A
:101BC80090E7032000E0002003B0F0BD00100240C1
:101BD8000070004000819010F0B583B0002362E0EF
:101BE80085685E000324B44025EA0405CC68B44047
:101BF8002C438460456825EA0C054C68C4F300143E
:101C08009C402C4344605FE0DD08083550F82540CF
:101C180003F0070C4FEA8C0C4FF00F0E0EFA0CFE77
:101C280024EA0E0E0C6904FA0CF444EA0E0440F897
:101C3800254060E0032400E0002404FA0EF42C435D
:101C48000CF1020C4F4D45F82C404F4CA568D4437D
:101C580025EA02064F6817F4801F01D042EA0506FC
:101C6800494DAE60ED6804EA05064F6817F4001F99
:101C780001D042EA0506444DEE606D6804EA0506A7
:101C88004F6817F4003F01D042EA05063E4D6E60EA
:101C98002D682C404E6816F4803F01D042EA0504B6
:101CA800394A146001330A6832FA03F468D04FF0F5
:101CB800010C0CFA03FC1CEA0202F3D04C6804F095
:101CC8000304013C012C8BD94C6804F00304032C59
:101CD8000CD0C4685D004FF0030C0CFA05FC24EA34
:101CE8000C0C8C68AC4044EA0C04C4604C6804F0EA
:101CF8000304022C88D004684FEA430E4FF0030C0B
:101D08000CFA0EFC24EA0C0C4C6804F0030404FAE8
:101D18000EF444EA0C0404604C6814F4403FC1D04B
:101D28001A4CA56945F00105A561A46904F00104F0
:101D38000194019C4FEA930C0CF10205114C54F8E4
:101D4800255003F0030E4FEA8E0E0F2404FA0EF40A
:101D580025EA0405B0F1904F3FF46EAF0C4CA04259
:101D68000AD004F58064A04208D004F58064A0423B
:101D78003FF460AF052460E701245EE702245CE7D6
:101D880003B0F0BD00000140000401400010024013
:101D980000040048002808DB0901C9B200F16040CE
:101DA80000F5614080F80013704700F00F0009014A
:101DB800C9B2014B1954704714ED00E000B500F0AA
:101DC8000700C0F1070CBCF1040F28BF4FF0040C4A
:101DD800031D062B0FD9C31E4FF0FF3E0EFA0CF061
:101DE80021EA000199400EFA03FE22EA0E0241EAB6
:101DF80002005DF804FB0023EEE70000074AD36801
:101E080023F4E0631B041B0C000200F4E0600343AE
:101E180043F0BF6343F40033D360704700ED00E044
:101E280010B50446054BD868C0F30220FFF7C6FF7B
:101E380001462046FFF7AEFF10BD00BF00ED00E0F1
:101E48000138B0F1807F0BD24FF0E0235861054A8A
:101E5800F02182F823100020986107221A61704748
:101E68000120704700ED00E0034AD2F8883043F4BF
:101E78007003C2F88830704700ED00E000B587B005
:101E88000023009301930293039304930593164848
:101E9800164A0260436083600361437680F820300D
:101EA800C36201228262C360C26180F830300422BA
:101EB80042610376436300F023F978B90123009364
:101EC80001930023039302930493059369460648FC
:101ED80000F020FA28B907B05DF804FBFEF770F9A6
:101EE800ECE7FEF76DF9F6E710010020000100505D
:101EF80000B589B0002303930493059306930793D1
:101F08000268114B9A4202D009B05DF804FB0F4BEE
:101F18005A6942F080525A615A6902F0805201921D
:101F2800019A5A6942F400325A615B6903F400333A
:101F38000293029B702303930323049303A94FF096
:101F48009040FFF749FEDFE7000100500010024013
:101F580008B50B480B4B03604FF41643436000234E
:101F68008360C36003610C2242618361C3610362C1
:101F7800436200F07AFD00B908BDFEF721F9FBE7DE
:101F8800E80100200038014008B50B480B4B0360FE
:101F98004FF41643436000238360C36003610C223F
:101FA80042618361C3610362436200F05EFD00B970
:101FB80008BDFEF705F9FBE760010020004400407A
:101FC80000B58BB0002305930693079308930993F4
:101FD8000368254A934205D0244A934222D00BB085
:101FE8005DF804FB224B9A6942F480429A619A692F
:101FF80002F480420192019A5A6942F480225A619D
:102008005B6903F480230293029BC0230593022398
:102018000693032308930723099305A91548FFF797
:10202800DBFDDCE7124BDA6942F40032DA61DA6987
:1020380002F400320392039A5A6942F400325A6158
:102048005B6903F400330493049B0C230593022378
:102058000693032308930723099305A94FF090409B
:10206800FFF7BAFDBBE700BF00380140004400405D
:10207800001002400004004838B50268936803F075
:102088000303012B01D0002038BD0446136813F068
:10209800010F33D0936803F00D03012B09D0036CB3
:1020A80043F010030364436C43F0010343640120CD
:1020B800EAE7936843F002039360036803221A6017
:1020C800FFF776F8054623689B6813F0010F13D0D5
:1020D800FFF76EF8401B0228F5D923689B6813F0B8
:1020E800010FF0D0236C43F010032364636C43F0BA
:1020F800010363640120C7E70020C5E70020C3E7A8
:1021080030B597B000230193002800F0F78004460B
:10211800036C13F0100F52D1036CABB1002023688D
:102128009A6812F0805F03D09B6813F0005F47D075
:10213800236C23F0120343F010032364636C43F011
:102148000103636401203BE04364C364836480F853
:102158003C30FFF7CDFE23689B6813F0805F01D009
:102168000020DCE72046FFF787FF236C13F0100FF1
:10217800D5D10028D3D1236C23F4885323F002034C
:1021880043F0020323642268936823F0405393606A
:102198002268936843F080539360594B1B68594AEF
:1021A800A2FB03239B0C03EB83035B00019302E078
:1021B800019B013B0193019B002BF9D1AFE7002064
:1021C800236C13F0100F40F09080002840F08D80B1
:1021D8002368996811F0040140F08780226C22F48A
:1021E800817242F002022264B3F1A04F54D04FF042
:1021F800A04202929A6802F00302012A4FD0029B81
:1022080023B19A6802F00302012A4DD03E4A93682E
:1022180023F4403365682B439360627E5303656BF8
:10222800012D01D04FF480510B43E1680B43A168A5
:102238000B4394F8201001293BD0A26A012A02D04E
:10224800E16A0A4313432268916811F00C0F0CD11C
:10225800D16821F4804121F00201D160217E94F8F7
:102268003020520042EA813213432168CD68274A60
:102278002A401A43CA602369012B2DD02268136BA8
:1022880023F00F03136300236364236C23F0030319
:1022980043F0010323642FE01D4A0292AAE71B685A
:1022A80013F0010FB9D1AAE71B6813F0010FB4D1DD
:1022B800ACE732B9626A013A43EA424242F48033F7
:1022C800BBE7226C22F0220242F020022264626CF8
:1022D80042F001026264B0E721680B6B23F00F0340
:1022E800E269013A13430B63CDE7236C23F0120331
:1022F80043F010032364012017B030BD0120FBE731
:102308000800002083DE1B430003005007C0F0FFD5
:102318000001005030B496B00022019290F83C20A1
:10232800012A00F0A5810346012280F83C200068BC
:10233800826812F0040F40F090814A68042A35D868
:10234800046B02EB420252004FF01F0C0CFA02FC25
:1023580024EA0C0C0C6894404CEA040404631868E2
:10236800826812F00C0F6BD10A68092A4FD9846968
:1023780002EB42021E3A4FF0070C0CFA02FC24EA68
:102388000C048D6805FA02F22243826148691C68D0
:10239800E268C2F3C102520090400A69013A032A76
:1023A80000F28D80DFE802F0426A7580092A10D8B1
:1023B800446B02EB420252001E3A4FF01F0C0CFA1B
:1023C80002FC24EA0C040D6805FA02F22243426377
:1023D800C5E70E2A0DD8846B02EB420252003C3A44
:1023E8001F25954024EA05040D6895402C43846315
:1023F800B5E7C46B02EB420252005A3A1F259540DA
:1024080024EA05040D6895402C43C463A7E7446992
:1024180002EB42024FF0070C0CFA02FC24EA0C040F
:102428008D6805FA02F222434261AFE7256E914AB0
:102438002A400D6840EA85652A4342F00042226638
:102448001868826802F00302012A68D0CA68012A63
:102458006BD0D0F8B02001240D68AC4022EA040209
:10246800C0F8B0200A68102A00F08680112A00F00F
:10247800A480122A00F0A7800020F3E0656E7D4A50
:102488002A400D6840EA85652A4342F000426266A8
:10249800D6E7A56E774A2A400D6840EA85652A4343
:1024A80042F00042A266CBE7E26E724D15400A6820
:1024B80040EA8262154345F00045E566C0E7226EB2
:1024C80002F0F8420868B2EB806F03D1226E22F066
:1024D800004222661A68506E00F0F8400C68B0EBB3
:1024E800846F03D1506E20F0004050661A68906ED9
:1024F80000F0F8400C68B0EB846F03D1906E20F0C8
:10250800004090661A68D06E00F0F8400C68B0EB96
:10251800846F95D1D06E20F00040D06690E70268B5
:1025280012F0010F92D000209CE0D0F8B0200D6886
:102538000124AC402243C0F8B0200A68092A0DD90A
:102548001D68A86902EB42021B3A0724944020EA5E
:1025580004008C6894402043A86183E71D6868697B
:10256800013202EB42020724944020EA04008C68FE
:1025780094402043686175E73F49896811F4000F6A
:102588007FF474AF1868B0F1A04F23D04FF0A0418A
:102598000291816801F0030101291ED0029921B13D
:1025A8008C6804F00304012C21D0102A24D0112AAD
:1025B80042D0122A4AD0002054E02F49896811F0ED
:1025C800807FDFD055E72C49896811F4800FD9D076
:1025D800002047E029490291DBE7016811F0010F6B
:1025E800DCD01A6C42F020021A6401203AE0096833
:1025F80011F0010FF5D1D8E7B0F1A04FD7D11E499E
:102608008A6842F400028A601D4A1268A1F14E618C
:10261800A1F58421A1F27D41A1FB0212920C02EBEB
:1026280082025200019202E0019A013A0192019A53
:10263800002AF9D1002015E0B0F1A04FB9D10E4918
:102648008A6842F080728A6000200BE00A498A6832
:1026580042F480028A60002004E01A6C42F02002F2
:102668001A640120002283F83C2016B030BC704761
:102678000220FAE700F0FF83000300500001005039
:1026880008000020026852E8003F23F4907342E8F3
:1026980000310029F6D1026802F1080353E8003F2F
:1026A80023F00103083242E800310029F3D1036E18
:1026B800012B06D02023C0F88030002303668366F0
:1026C8007047026852E8003F23F0100342E80031E7
:1026D8000029F6D1EEE7000010B5044683680269C8
:1026E800134342691343C2691343016808684E4A99
:1026F80002401A430A602268536823F44053E16891
:102708000B435360A269236A1A4321688B6823F438
:10271800306313438B602368444A934214D0444A7D
:10272800934227D002F5806293421FD01023E069BC
:10273800B0F5004F20D0082B70D8DFE803F04A60CE
:10274800486F636F6F6F66003A4B1B6B03F00303B0
:10275800032B09D8DFE803F00204060C0023E6E7A0
:102768000423E4E70823E2E71023E0E70023DEE799
:102778000223DCE70023DAE7082B49D8DFE803F077
:10278800051F2548224848480900FFF733F9002863
:1027980040D06268530803EB4003B3FBF2F3A3F1A4
:1027A80010014FF6EF72914236D89AB222F00F021A
:1027B800C3F3420313432268D36000201BE0FFF7F2
:1027C8002FF9E4E7FFF712F8E1E71B48E1E71A48B9
:1027D80002E0FFF70FF918B3636800EB5300B0FB92
:1027E800F3F0A0F110024FF6EF739A421AD823685B
:1027F80080B2D86000200023A366E36610BDFFF70F
:102808000FF9E8E7FEF7F2FFE5E74FF40040E3E7EA
:102818000120F0E70020EEE70120ECE70120EAE7DD
:102828000020E8E70120E6E7F369FFEF0038014000
:10283800004400400010024000127A00436A13F07E
:10284800080F06D00268536823F40043416B0B431A
:102858005360436A13F0010F06D00268536823F4EB
:102868000033816A0B435360436A13F0020F06D0AA
:102878000268536823F48033C16A0B435360436A88
:1028880013F0040F06D00268536823F48023016B09
:102898000B435360436A13F0100F06D00268936825
:1028A80023F48053816B0B439360436A13F0200F2A
:1028B80006D00268936823F40053C16B0B439360FE
:1028C800436A13F0400F0AD00268536823F4801358
:1028D800016C0B435360036CB3F5801F0BD0436A44
:1028E80013F0800F06D00268536823F40023816C2C
:1028F8000B43536070470268536823F4C003416C6C
:102908000B435360EBE72DE9F84305460E4617469F
:102918009946DDF820802B68DC6936EA04040CBF90
:1029280001240024BC4236D1B8F1FF3FF3D0FEF7B2
:102938003FFCA0EB0900404530D8B8F1000F2FD07C
:102948002B681A6812F0040FE5D0802EE3D0402ED1
:10295800E1D0DA6912F0080F11D1DA6912F4006FC8
:10296800D9D04FF400621A622846FFF78BFE202365
:10297800C5F88430002385F8783003200CE008245B
:102988001C622846FFF77EFEC5F88440002385F8C0
:102998007830012000E00020BDE8F8830320FBE741
:1029A8000320F9E730B583B004460023C0F884302B
:1029B800FEF7FEFB05462268126812F0080F0FD1D9
:1029C80023681B6813F0040F26D12023E367C4F89B
:1029D800803000202066606684F8780003B030BD3F
:1029E8006FF07E430093034600224FF40011204607
:1029F800FFF789FF0028E3D0226852E8003F23F060
:102A0800800342E800310029F6D12023E367002340
:102A180084F878300320E1E76FF07E4300932B467B
:102A280000224FF480012046FFF76DFF0028CCD02C
:102A3800226852E8003F23F4907342E800310029ED
:102A4800F6D1226802F1080353E8003F23F001039E
:102A5800083242E800310029F3D12023C4F880303D
:102A6800002384F878300320B8E768B310B504462B
:102A7800C36F03B32423E3672268136823F00103B9
:102A88001360636AE3B92046FFF726FE012811D0D8
:102A98002268536823F4904353602268936823F0B4
:102AA8002A0393602268136843F0010313602046E9
:102AB800FFF778FF10BD80F87830FFF781FAD9E783
:102AC8002046FFF7BBFEDEE70120704710B504463D
:102AD80008461146206062600023E360FEF77EF935
:102AE80061682068FEF72EFA2368DB68A36010BDD2
:102AF80008B52DED028B094B5B6802689B1A07EE3F
:102B0800903AB8EE678AFEF771FE00EE100AB8EE4A
:102B1800400A88EE000ABDEC028B08BD001000E0F8
:102B280010B5144C002221461348FFF7CFFF0422AA
:102B380021461248FFF7CAFF114C002221461148CE
:102B4800FFF7C4FF042221460F48FFF7BFFF00F03C
:102B5800A3F90E4AD2F8FC3043F08073C2F8FC3077
:102B68000B4B1A6842F001021A605A68094B1A6046
:102B780010BD00BF74000020A802002098020020A9
:102B880028000020880200207802002000ED00E0E4
:102B9800001000E07402002008B50BE0012B24D0DF
:102BA800022B3BD0032B52D0F2EE040A9FED340ADD
:102BB80000F09CF9334B1B68002BEFD13248FFF72C
:102BC80097FFDFED327A20EE270AFDEEC07A17EE86
:102BD800903A642BE8DDC82BE6DD2A4B01221A6007
:102BE8002B4B5A68284B1A60DEE72748FFF780FF0F
:102BF800DFED267A20EE270ADFED267A77EEC07A17
:102C0800FDEEE77A17EE903A002BCDDA1D4B022243
:102C18001A601F4B5A681C4B1A60C5E71A48FFF721
:102C280067FFDFED1A7A20EE670AFDEEC07A17EE2D
:102C3800903A13F1640FB7DA13F1C80FB4DA114BF5
:102C480003221A60124B5A680F4B1A60ACE70E4801
:102C5800FFF74EFFDFED0D7A20EE270ADFED0D7A44
:102C680030EE670ABDEEC00A10EE103A002B9BDD6D
:102C7800044B00221A60064B5A68034B1A6093E70C
:102C8800295C0F3E70020020740200200000964369
:102C9800001000E00000C84201E000F5B470002810
:102CA800FBDB01E0A0F5B470B0F5B47FFADA214A95
:102CB80082FB00320244C317C3EBA2135A2202FB61
:102CC800130302465A38592801D8C3F15A03A2F50A
:102CD8008771592901D8C3F15A035A2A13D9A2F185
:102CE8005B01592915D9A2F1B501592917D9A2F2C1
:102CF8000F12582A1BD8104A02EB830393ED000ADF
:102D0800B1EE400A70470C4A02EB830393ED000AC8
:102D18007047094A02EB830393ED000A7047064A9D
:102D280002EB830393ED000AB1EE400A70479FED72
:102D3800030A7047B7600BB6A03000080000000017
:102D4800B5EEC00AF1EE10FA09D4F7EE007AB4EE47
:102D5800E70AF1EE10FA04DDB0EE670A01E09FED34
:102D68001B0AD0ED027AF8EE677A27EE800ABDEEEC
:102D7800C00A436823B903681B6883ED0D0A7047CE
:102D8800043B0C2B1CD8DFE803F0071B1B1B0C1B98
:102D98001B1B111B1B1B160003681B6883ED0E0A07
:102DA800704703681B6883ED0F0A704703681B6848
:102DB80083ED100A704703681B6883ED160A704795
:102DC80003681B6883ED170A704700BF0000000006
:102DD80008B52DED028BF0EE608AB0EE418ADFED8A
:102DE800157AB4EEE70AF1EE10FA01DDB0EE670AE3
:102DF800DFED107AF4EEE78AF1EE10FA01DDF0EE7D
:102E0800678ADFED0C7AB4EEE78AF1EE10FA01DD9D
:102E1800B0EE678A0848FFF793FFB0EE680A0748E4
:102E2800FFF78EFFB0EE480A0548FFF789FFBDECB3
:102E3800028B08BD3333733FE0020020D00200202C
:102E4800C002002010B504460846114620606260A2
:102E58000023E360FDF7C2FF61682068FEF772F89F
:102E68002368DB68A36010BD08B52DED028B094B04
:102E78005B6802689B1A07EE903AB8EE678AFEF71D
:102E8800B5FC00EE100AB8EE400A88EE000ABDEC68
:102E9800028B08BD001000E010B50F4C002221463F
:102EA8000E48FFF7CFFF042221460D48FFF7CAFF5F
:102EB800082221460B48FFF7C5FF0B4AD2F8FC3021
:102EC80043F08073C2F8FC30A2F55D42136843F00A
:102ED8000103136010BD00BFC0000020E002002005
:102EE800D0020020C002002000ED00E010B52DED5A
:102EF800048BF0EE408AB0EE608A244C2046FFF73F
:102F0800B3FF234B5B6823609FED227A28EE078A84
:102F180028EE008A204BD3ED007A78EE277AC3EDAD
:102F2800007AF4EEC77AF1EE10FA03DB77EEC77A8F
:102F3800C3ED007AF6EE009A28EEA98A164BD3ED77
:102F4800007AFDEEE77A17EE904A2046FFF7A4FED6
:102F580068EE008A78EEA98AA4F17800FFF79CFE53
:102F680028EE009A39EE299A04F17800FFF794FECA
:102F780028EE001A31EE291AF0EE490AB0EE680A76
:102F8800FFF726FFBDEC048B10BD00BFBC0200207C
:102F9800001000E00000B443B8020020DFF834D08D
:102FA800FEF762FF0C480D490D4A002302E0D45891
:102FB800C4500433C4188C42F9D30A4A0A4C00237B
:102FC80001E013600432A242FBD300F019F8FDF7C8
:102FD8003EF9FEE700300020000000200C00002031
:102FE800143200080C000020F0020020FEE7024422
:102FF8000346934200D1704703F8011BF9E700002C
:1030080070B50D4D0D4C641BA4100026A64209D1C5
:103018000B4D0C4C00F018F8641BA4100026A642B7
:1030280005D170BD55F8043B98470136EEE755F8D1
:10303800043B98470136F2E70C3200080C320008CE
:103048000C32000810320008F8B500BFF8BC08BC04
:103058009E467047F8B500BFF8BC08BC9E4670474E
:103068000102030405060708090A0B0C0D0E0F10D0
:1030780002030405060708090A0B0C0D0E0F1010B1
:10308800000000000102030400000000000000002E
:1030980001020304060708090000000059F88E3CE5
:1030A800C6F20E3D3A5E563D7BDC8E3DB67EB23DA5
:1030B8000513D63DA296F93D65830E3E5B30203E52
:1030C800D4D0313E6F63433ECDE6543E9259663EBE
:1030D80060BA773EEE83843E57208D3EBEB1953E62
:1030E8007A379E3EDFB0A63E441DAF3E017CB73E18
:1030F8006FCCBF3EE90DC83EC93FD03E6C61D83E9B
:103108002F72E03E7171E83E945EF03EF738F83E6B
:103118000000003F89D9033FCAA8073F776D0B3FDE
:1031280044270F3FE8D5123F1879163F8D101A3FF4
:10313800FE9B1D3F241B213FBB8D243F7CF3273F73
:10314800254C2B3F72972E3F22D5313FF304353F54
:10315800A726383FFF393B3FBD3E3E3FA634413F9F
:103168007D1B443F0AF3463F13BB493F60734C3F06
:10317800BD1B4F3FF3B3513FCE3B543F1DB3563FAA
:10318800AE19593F516F5B3FD7B35D3F14E75F3FBF
:10319800DA08623F0119643F5E17663FCA03683F59
:1031A8001DDE693F35A66B3FEC5B6D3F20FF6E3F30
:1031B800B28F703F810D723F7178733F63D0743F57
:1031C8003F15763FEA46773F4D65783F5170793F26
:1031D800E2677A3FEB4B7B3F5C1C7C3F25D97C3F09
:1031E80035827D3F81177E3FFD987E3F9E067F3F5B
:1031F8005C607F3F2FA67F3F14D87F3F05F67F3F57
:043208000000803F03
:04320C00AD01000808
:043210008901000828
:0C321400010000001000000000127A0011
:0400000508002FA51B
:00000001FF
